:020000040800F2
:108000000004022031930008ED520608F1520608E0
:1080100055530608F1520608215306083393000809
:10802000339300083393000833930008C9AC0D085C
:108030003393000833930008339300083393000808
:1080400033930008339300083393000833930008F8
:10805000339300083393000835110E0865110E089C
:1080600095110E08C5110E08F5110E0821B00D0866
:108070004DB00D087DB00D08ADB00D08DDB00D0898
:1080800009B10D0839B10D089DAE0D08554C060813
:10809000894C0608BD4C06083393000825120E08CB
:1080A0003393000833930008339300083393000898
:1080B0004D190E0833930008339300083DB90D089D
:1080C00071B90D08A5B90D08D9B90D083393000889
:1080D0003393000851CE0D0869CE0D0881CE0D08EE
:1080E00091120E083393000833930008339300086D
:1080F00033930008339300083393000869B10D08E7
:108100003393000889BF0D083393000833930008A8
:1081100099CE0D0833930008339300083393000879
:1081200099B10D08C5B10D08F5B10D0825B20D08BE
:1081300055B20D083393000833930008F14C06083C
:10814000254D0608594D060833930008E90C0E0822
:1081500081B20D08B1B20D08E1B20D08B1CE0D0823
:108160000DBA0D0841BA0D08339300083393000887
:1081700033930008339300083393000833930008C7
:108180003393000833930008C9CE0D08E1CE0D08E3
:1081900033930008339300083393000833930008A7
:1081A0003393000833930008339300083393000897
:1081B00033930008339300083393000875BA0D0811
:1081C000A9BA0D08339300083393000833930008CD
:1081D0003393000833930008339300083393000867
:1081E0003393000833930008339300083393000857
:1081F0003393000833930008339300083393000847
:10820000F1BD000881E500084570010819850108E5
:10821000558E010899920108FD96010859970108A9
:10822000AD9D010891DE0108D9FD0108314F02081A
:1082300079F302083D610308B988030889960308A9
:10824000E91D0408192604089929040801A4040852
:1082500079900508FD390608CD3D06083D3F060822
:108260008D4D06087D51060881570608F5900708D0
:10827000399B0708A9E70708F5F807080912080855
:108280003D120808113D0808C578080869930808D8
:10829000FDBD0808F9770B08597C0B08E17C0B0839
:1082A0006D7F0B0879AD0B08A10C0C08E11A0C08C6
:1082B00061230C08B5450C081D500C08A16A0C0878
:1082C0001D7D0D08000000000000000000000000FF
:1082D00081F0004102E000BF83F0004330B54FEA77
:1082E00041044FEA430594EA050F08BF90EA020FE4
:1082F0001FBF54EA000C55EA020C7FEA645C7FEA77
:10830000655C00F0E2804FEA5454D4EB5555B8BF99
:108310006D420CDD2C4480EA020281EA030382EA0A
:10832000000083EA010180EA020281EA0303362D9C
:1083300088BF30BD11F0004F4FEA01314FF4801C6F
:108340004CEA113102D0404261EB410113F0004F81
:108350004FEA03334CEA133302D0524263EB430338
:1083600094EA050F00F0A780A4F10104D5F1200ED6
:108370000DDB02FA0EFC22FA05F2801841F1000131
:1083800003FA0EF2801843FA05F359410EE0A5F105
:1083900020050EF1200E012A03FA0EFC28BF4CF036
:1083A000020C43FA05F3C01851EBE37101F00045EC
:1083B00007D54FF0000EDCF1000C7EEB00006EEBF9
:1083C0000101B1F5801F1BD3B1F5001F0CD3490883
:1083D0005FEA30004FEA3C0C04F101044FEA4452DA
:1083E00012F5800F80F09A80BCF1004F08BF5FEA61
:1083F000500C50F1000041EB045141EA050130BD41
:108400005FEA4C0C404141EB010111F4801FA4F1E3
:108410000104E9D191F0000F04BF01460020B1FA38
:1084200081F308BF2033A3F10B03B3F120020CDA70
:108430000C3208DD02F1140CC2F10C0201FA0CF04E
:1084400021FA02F10CE002F11402D8BFC2F1200CB3
:1084500001FA02F120FA0CFCDCBF41EA0C01904069
:10846000E41AA2BF01EB0451294330BD6FEA0404B2
:108470001F3C1CDA0C340EDC04F11404C4F120029D
:1084800020FA04F001FA02F340EA030021FA04F3AF
:1084900045EA030130BDC4F10C04C4F1200220FA06
:1084A00002F001FA04F340EA0300294630BD21FA44
:1084B00004F0294630BD94F0000F83F4801306BF0A
:1084C00081F480110134013D4EE77FEA645C18BFFE
:1084D0007FEA655C29D094EA050F08BF90EA020F95
:1084E00005D054EA000C04BF1946104630BD91EA8D
:1084F000030F1EBF0021002030BD5FEA545C05D190
:108500004000494128BF41F0004130BD14F58004CE
:108510003CBF01F5801130BD01F0004545F0FE4142
:1085200041F470014FF0000030BD7FEA645C1ABF77
:10853000194610467FEA655C1CBF0B46024650EAAE
:10854000013406BF52EA033591EA030F41F40021DA
:1085500030BD00BF90F0000F04BF0021704730B560
:108560004FF4806404F132044FF000054FF0000135
:1085700050E700BF90F0000F04BF0021704730B5F6
:108580004FF4806404F1320410F0004548BF4042CB
:108590004FF000013EE700BF42004FEAE2014FEA20
:1085A00031014FEA02701FBF12F07F4393F07F4FFB
:1085B00081F06051704792F0000F14BF93F07F4F2D
:1085C000704730B54FF4607401F0004521F0004170
:1085D00020E700BF50EA010208BF704730B54FF0F6
:1085E00000050AE050EA010208BF704730B511F0FB
:1085F000004502D5404261EB41014FF4806404F133
:1086000032045FEA915C3FF4DCAE4FF003025FEAB4
:10861000DC0C18BF03325FEADC0C18BF033202EB3C
:10862000DC02C2F1200300FA03FC20FA02F001FA96
:1086300003FE40EA0E0021FA02F11444C1E600BF35
:1086400070B54FF0FF0C4CF4E06C1CEA11541DBFE8
:108650001CEA135594EA0C0F95EA0C0F00F0DEF8B3
:108660002C4481EA030621EA4C5123EA4C5350EA98
:10867000013518BF52EA033541F4801143F48013E9
:1086800038D0A0FB02CE4FF00005E1FB02E506F07A
:108690000042E0FB03E54FF00006E1FB03569CF0CF
:1086A000000F18BF4EF0010EA4F1FF04B6F5007FD5
:1086B00064F5407404D25FEA4E0E6D4146EB060647
:1086C00042EAC62141EA55514FEAC52040EA5E50D0
:1086D0004FEACE2EB4F1FD0C88BFBCF5E06F1ED87A
:1086E000BEF1004F08BF5FEA500E50F1000041EBB1
:1086F000045170BD06F0004646EA010140EA02005E
:1087000081EA0301B4EB5C04C2BFD4EB0C0541EA7F
:10871000045170BD41F480114FF0000E013C00F394
:10872000AB8014F1360FDEBF002001F0004170BDB8
:10873000C4F10004203C35DA0C341BDC04F11404D1
:10874000C4F1200500FA05F320FA04F001FA05F25D
:1087500040EA020001F0004221F0004110EBD3702A
:1087600021FA04F642EB06015EEA430E08BF20EA56
:10877000D37070BDC4F10C04C4F1200500FA04F3F9
:1087800020FA05F001FA04F240EA020001F000418B
:1087900010EBD37041F100015EEA430E08BF20EAFE
:1087A000D37070BDC4F1200500FA05F24EEA020E46
:1087B00020FA04F301FA05F243EA020321FA04F075
:1087C00001F0004121FA04F220EA020000EBD3702C
:1087D0005EEA430E08BF20EAD37070BD94F0000F2C
:1087E0000FD101F00046400041EB010111F4801F60
:1087F00008BF013CF7D041EA060195F0000F18BF11
:10880000704703F00046520043EB030313F4801F4C
:1088100008BF013DF7D043EA0603704794EA0C0F06
:108820000CEA135518BF95EA0C0F0CD050EA41061C
:1088300018BF52EA4306D1D181EA030101F0004199
:108840004FF0000070BD50EA410606BF10461946C1
:1088500052EA430619D094EA0C0F02D150EA0136CD
:1088600013D195EA0C0F05D152EA03361CBF10460E
:1088700019460AD181EA030101F0004141F0FE41AD
:1088800041F470014FF0000070BD41F0FE4141F431
:10889000780170BD70B54FF0FF0C4CF4E06C1CEA31
:1088A00011541DBF1CEA135594EA0C0F95EA0C0FE6
:1088B00000F0A7F8A4EB050481EA030E52EA0335A1
:1088C0004FEA013100F088804FEA03334FF08055C2
:1088D00045EA131343EA12634FEA022245EA1115EF
:1088E00045EA10654FEA00260EF000419D4208BFA0
:1088F000964244F1FD0404F5407402D25B084FEA4D
:108900003202B61A65EB03055B084FEA32024FF4F8
:1089100080104FF4002CB6EB020E75EB030E22BF55
:10892000B61A754640EA0C005B084FEA3202B6EB15
:10893000020E75EB030E22BFB61A754640EA5C00C4
:108940005B084FEA3202B6EB020E75EB030E22BF54
:10895000B61A754640EA9C005B084FEA3202B6EB55
:10896000020E75EB030E22BFB61A754640EADC0014
:1089700055EA060E18D04FEA051545EA16754FEA76
:1089800006164FEAC30343EA52734FEAC2025FEA94
:108990001C1CC0D111F4801F0BD141EA00014FF023
:1089A00000004FF0004CB6E711F4801F04BF0143F4
:1089B0000020B4F1FD0C88BFBCF5E06F3FF6AFAE10
:1089C000B5EB030C04BFB6EB020C5FEA500C50F1A0
:1089D000000041EB045170BD0EF0004E4EEA113123
:1089E00014EB5C04C2BFD4EB0C0541EA045170BD2A
:1089F00041F480114FF0000E013C90E645EA060E6E
:108A00008DE60CEA135594EA0C0F08BF95EA0C0F9B
:108A10003FF43BAF94EA0C0F0AD150EA01347FF4E3
:108A200034AF95EA0C0F7FF425AF104619462CE7BA
:108A300095EA0C0F06D152EA03353FF4FDAE10461D
:108A4000194622E750EA410618BF52EA43067FF46E
:108A5000C5AE50EA41047FF40DAF52EA43057FF4FE
:108A6000EBAE12E74FF0FF3C06E000BF4FF0010C09
:108A700002E000BF4FF0010C4DF804CD4FEA410C6D
:108A80007FEA6C5C4FEA430C18BF7FEA6C5C1BD03A
:108A900001B050EA410C0CBF52EA430C91EA030FBB
:108AA00002BF90EA020F0020704710F1000F91EA18
:108AB000030F58BF994208BF90422CBFD8176FEAE6
:108AC000E37040F0010070474FEA410C7FEA6C5CB4
:108AD00002D150EA013C07D14FEA430C7FEA6C5CBB
:108AE000D6D152EA033CD3D05DF8040B704700BFE7
:108AF0008446104662468C461946634600E000BF35
:108B000001B5FFF7B7FF002848BF10F1000F01BD06
:108B10004DF808EDFFF7F4FF0CBF012000205DF8D1
:108B200008FB00BF4DF808EDFFF7EAFF34BF012056
:108B300000205DF808FB00BF4DF808EDFFF7E0FFEF
:108B400094BF012000205DF808FB00BF4DF808ED40
:108B5000FFF7CEFF94BF012000205DF808FB00BFA7
:108B60004DF808EDFFF7C4FF34BF012000205DF889
:108B700008FB00BF4FEA410C7FEA6C5C02D150EA6F
:108B8000013C0AD14FEA430C7FEA6C5C02D152EA05
:108B9000033C02D14FF0000070474FF001007047D6
:108BA0004FEA410212F5001215D211D56FF4787315
:108BB000B3EB625212D94FEAC12343F0004343EAB8
:108BC000505311F0004F23FA02F018BF4042704793
:108BD0004FF00000704750EA013005D111F000401D
:108BE00008BF6FF0004070474FF00000704700BFB3
:108BF0004A0011D212F5001211D20DD56FF478731C
:108C0000B3EB62520ED44FEAC12343F0004343EA70
:108C1000505323FA02F070474FF00000704750EABB
:108C2000013002D14FF0FF3070474FF00000704725
:108C30004FEA4102B2F1E04324BFB3F5001CDCF17E
:108C4000FE5C0DD901F0004C4FEAC0024CEA5070B6
:108C5000B2F1004F40EB830008BF20F001007047E5
:108C600011F0804F21D113F13872BCBF01F00040E8
:108C7000704741F480114FEA5252C2F11802C2F11A
:108C8000200C10FA0CF320FA02F018BF40F001009B
:108C90004FEAC1234FEAD32303FA0CFC40EA0C004D
:108CA00023FA02F34FEA4303CCE77FEA625307D18A
:108CB00050EA01331EBF4FF0FE4040F440007047C1
:108CC00001F0004040F0FE4040F40000704700BF5B
:108CD00080F0004002E000BF81F0004142001FBF71
:108CE0005FEA410392EA030F7FEA226C7FEA236C7A
:108CF0006AD04FEA1262D2EB1363C1BFD21841406F
:108D000048404140B8BF5B42192B88BF704710F004
:108D1000004F40F4000020F07F4018BF404211F0A7
:108D2000004F41F4000121F07F4118BF494292EA0F
:108D3000030F3FD0A2F1010241FA03FC10EB0C003B
:108D4000C3F1200301FA03F100F0004302D54942C8
:108D500060EB4000B0F5000F13D3B0F1807F06D375
:108D600040084FEA310102F10102FE2A51D2B1F16D
:108D7000004F40EBC25008BF20F0010040EA030062
:108D80007047490040EB000010F4000FA2F101020F
:108D9000EDD1B0FA80FCACF1080CB2EB0C0200FA99
:108DA0000CF0AABF00EBC25052421843BCBFD040E7
:108DB0001843704792F0000F81F4000106BF80F461
:108DC00000000132013BB5E74FEA41037FEA226C24
:108DD00018BF7FEA236C21D092EA030F04D092F0EF
:108DE000000F08BF0846704790EA010F1CBF002023
:108DF000704712F07F4F04D1400028BF40F0004080
:108E0000704712F100723CBF00F50000704700F09F
:108E1000004343F0FE4040F4000070477FEA2262C6
:108E200016BF08467FEA23630146420206BF5FEA97
:108E3000412390EA010F40F4800070474FF0000397
:108E400004E000BF10F0004348BF40425FEA000C5E
:108E500008BF704743F0964301464FF000001CE006
:108E600050EA010208BF70474FF000030AE000BF5C
:108E700050EA010208BF704711F0004302D540429A
:108E800061EB41015FEA010C02BF8446014600200C
:108E900043F0B64308BFA3F18053A3F50003BCFA27
:108EA0008CF2083AA3EBC25310DB01FA02FC6344D4
:108EB00000FA02FCC2F12002BCF1004F20FA02F2DB
:108EC00043EB020008BF20F00100704702F12002CE
:108ED00001FA02FCC2F1200250EA4C0021FA02F22F
:108EE00043EB020008BF20EADC7070477BB972B91F
:108EF0000029BEBF00204FF0004106E008BF002857
:108F00001CBF6FF000414FF0FF3000F00FBAADF121
:108F1000080C6DE904CE002909DB002B1ADB00F0F8
:108F200097F8DDF804E0DDE9022304B07047404221
:108F300061EB4101002B1BDB00F08AF8DDF804E057
:108F4000DDE9022304B0404261EB4101524263EB90
:108F500043037047524263EB430300F079F8DDF8B6
:108F600004E0DDE9022304B0404261EB41017047B7
:108F7000524263EB430300F06BF8DDF804E0DDE9F7
:108F8000022304B0524263EB4303704753B94AB91A
:108F9000002908BF00281CBF4FF0FF314FF0FF3001
:108FA00000F0C4B9ADF1080C6DE904CE00F050F842
:108FB000DDF804E0DDE9022304B07047430803F064
:108FC0005533C01A830803F0333300F033301844AC
:108FD00000EB101000F00F3000EB002000EB004021
:108FE000000E704780EA104080EA102080EA1010DE
:108FF00046F6961300F00F0043FA00F000F001006F
:10900000704700BFD0B5FFF7C7FA00220E4B0646E7
:109010000F46FFF715FBFFF7EBFD0446FFF79AFA43
:1090200000220A4BFFF70CFB02460B46304639463E
:10903000FFF752F9FFF7DCFD2346002242EA000267
:1090400010461946D0BD00BF0000F03D0000F041C1
:109050002DE9F0478C460D460446089E002B51D161
:109060008A4217466DD9B2FA82FEBEF1000F0BD0CC
:10907000CEF1200C01FA0EF520FA0CFC02FA0EF7E4
:109080004CEA050C00FA0EF44FEA174A250CBCFB1B
:10909000FAF81FFA87F90AFB18CC45EA0C4508FBD9
:1090A00009F3AB420AD9ED1908F1FF3280F02381B0
:1090B000AB4240F22081A8F102083D44ED1AA4B26F
:1090C000B5FBFAF00AFB105544EA054400FB09F928
:1090D000A14509D9E41900F1FF3380F00A81A145C7
:1090E00040F2078102383C44A4EB090440EA0840FE
:1090F0000021002E61D024FA0EF400233460736046
:10910000BDE8F0878B4207D9002E54D0002186E8B5
:1091100021000846BDE8F087B3FA83F1002940F04A
:109120008E80AB4202D3824200F2FA80841A65EB51
:1091300003050120AC46002E3FD086E81010BDE8A4
:10914000F08712B90127B7FBF2F7B7FA87FEBEF135
:10915000000F34D1EB1B3A0C1FFA87FC0121B3FB43
:10916000F2F8250C02FB183345EA03450CFB08F323
:10917000AB4207D9ED1908F1FF3002D2AB4200F241
:10918000D1808046ED1AA3B2B5FBF2F002FB105578
:1091900043EA05440CFB00FCA44507D9E41900F19F
:1091A000FF3302D2A44500F2B8801846A4EB0C04A9
:1091B00040EA08409DE731463046BDE8F087CEF1F1
:1091C000200405FA0EF307FA0EF720FA04F83A0C19
:1091D00025FA04F448EA0308B4FBF2F14FEA184513
:1091E00002FB11441FFA87FC45EA044501FB0CF31E
:1091F000AB4200FA0EF409D9ED1901F1FF3080F00D
:109200008A80AB4240F2878002393D44EB1A1FFA54
:1092100088F5B3FBF2F002FB103345EA034500FB8F
:109220000CF3AB4207D9ED1900F1FF386FD2AB4216
:109230006DD902383D44EB1A40EA01418FE7C1F194
:10924000200722FA07F88B4005FA01F448EA0303E5
:1092500020FA07FE4FEA134CFD404EEA040EB5FB20
:10926000FCF94FEA1E440CFB19551FFA83F844EA37
:10927000054509FB08F4AC4202FA01F200FA01FAD2
:1092800008D9ED1809F1FF3043D2AC4241D9A9F118
:1092900002091D442D1B1FFA8EFEB5FBFCF00CFBD2
:1092A00010554EEA054400FB08F8A04507D9E4181C
:1092B00000F1FF3529D2A04527D902381C4440EAE5
:1092C0000940A4EB0804A0FB02894C45C6464D4664
:1092D00015D312D056B1BAEB0E0364EB050404FAB1
:1092E00007F7CB401F43CC40376074600021BDE8D6
:1092F000F0871846F8E69046E0E6C245EAD2B8EBB9
:10930000020E69EB03050138E4E72846D7E740463B
:1093100091E78146BEE7014678E702383C4445E7DD
:10932000084608E7A8F102083D442BE7704700BF54
:1093300002E000F000F8FEE772B6394880F30888D2
:10934000384880F3098838484EF60851CEF20001BB
:10935000086040F20000CCF200004EF63471CEF20C
:1093600000010860BFF34F8FBFF36F8F40F2000022
:10937000C0F2F0004EF68851CEF200010860BFF353
:109380004F8FBFF36F8F4FF00000E1EE100A4EF6E3
:109390003C71CEF200010860062080F31488BFF310
:1093A0006F8FD7F01BF9D6F06BFA4FF055301F498D
:1093B0001B4A91423CBF41F8040BFAE71C49194A89
:1093C00091423CBF41F8040BFAE71A491A4A1B4B79
:1093D0009A423EBF51F8040B42F8040BF8E7002014
:1093E0001749184A91423CBF41F8040BFAE7D7F0FD
:1093F00039F9D6F0AFFA144C144DAC4203DA54F8F4
:10940000041B8847F9E700F035FC114C114DAC42C4
:1094100003DA54F8041B8847F9E7D7F021B90000B4
:109420000004022000240220008000080000022026
:109430000004022030D810080024022068290220ED
:1094400068290220EC41032000820008C482000841
:10945000C4820008C48200082DE9F04F2DED108A67
:10946000C1F80CD0D0F80CD0BDEC108ABDE8F08F5C
:10947000D5F05AFE002383F311882846A047002028
:10948000D5F0F8FFD5F04AFED5F080FDD5F04CFEC2
:1094900000DFFEE701F0FF01102A2BDB10F0070FC1
:1094A00008D010F8013B013A8B422DD010F0070F85
:1094B00042B3F6D1F0B441EA012141EA014122F080
:1094C00007047FF000070023F0E80256083C85EA15
:1094D000010586EA010685FA47F5A3FA87F586FABB
:1094E00047F6A5FA87F68EB9EED1F0BC01F0FF0180
:1094F00002F0070232B110F8013B013A83EA01039E
:1095000013B1F8D10020704701387047002D06BF15
:1095100035460338073815F0010F07D1013015F42F
:10952000807F02BF013015F4C03F0130F0BC01382C
:10953000704700BFEC46A0E8F05F4FF000007047B6
:10954000B0E8F05FE546080008BF0120704700BFA3
:1095500010F8012B11F8013B012A28BF9A42F7D0DD
:10956000D01A7047034613F8012B002AFBD1181AB2
:109570000138704770B5094B84B0D3F8A068D3F8B0
:10958000A458D3F8A848D3F8AC3800966A46019599
:109590000294039359F088F904B070BD9029022019
:1095A00070B50024154E2546E1B2304607F014F898
:1095B000002156F039F8022804F101041BD00428D8
:1095C00019D0012808BF0125102CEDD185B10B4E13
:1095D0000024E1B2304606F0FFFF012156F024F8E6
:1095E000022804F1010407D0042805D0102CF0D182
:1095F0000025284670BD0125284670BD902902200F
:1096000070B5047E0CB1204670BD05460E46FFF7CE
:10961000C7FF044628B131462846BDE8704059F0DE
:10962000E5B828463246034B214658F09BFA2046BF
:1096300070BD00BF5C840E08F0B583B005460E46D1
:1096400058F08EFE044658B1AB6813F0110F07D0E6
:109650000DF0FEF90368D3F8B4309847074610B10F
:10966000204603B0F0BD0DF0F3F903685B6A98473C
:10967000064A074B002808BF10460090324628468D
:1096800010213C4658F06EFAEAE700BF48840E0805
:1096900084D90E082DE9F041344D2B781BB10026FA
:1096A0003046BDE8F08101272F7058F0F9F90646E1
:1096B00038B92F4A287013783B4313703046BDE801
:1096C000F08132F069F8394631F0B8FB294806F0EC
:1096D0002BFA294B0B241F7129F00AFF29F088FE71
:1096E000013CF9D10DF0B4F9DFF88880826942F6C7
:1096F0002003074648F8032090F86031DA0705D5C3
:109700009B0703D42146404602F028FC97F88C3092
:109710001A4A43F00403126887F88C30906C0121D8
:109720001DF000FC134808F09FF90121144857F080
:1097300011FF32F031F80A2131F0BEFF32F02CF87F
:1097400042F2B44342F2B54218F8031018F802206E
:1097500031F0D2FC074806F0D9F930F091FB2FF038
:10976000CDFF00232B703046BDE8F0816829022030
:10977000E460022090290220C8600220882902208B
:10978000E84E02202DE9F0412D4A42F25D5384B0AB
:10979000D35CDB0704D40025284604B0BDE8F08183
:1097A00058F0A2F905460028F5D00CF015FC036826
:1097B000D3F890308046984718BB31F0EDFF0B216D
:1097C00031F07AFF00211F4857F0C4FE1E4824F0F4
:1097D00035F831F0E1FF002131F030FB98F88C30A2
:1097E0001A4A6FF38203126888F88C30906C00215B
:1097F0001DF098FB124807F05BF8284604B0BDE85E
:10980000F08114F03FFB90F94F30022BD5D10026A8
:10981000002401E0032CD0D0E7B2394601AA40462B
:109820000196029603960CF00BFB01340028F1D050
:1098300014F028FB01AA394614F024F8EAE700BF27
:1098400090290220E84E0220284C0220882902207C
:1098500009F038B808F042BC10F068BC30F0ECBA3F
:109860001EF0FEBD31F004BC41F0EEB93EF076BB17
:109870003FF00ABA29F0BCBD0EF0EEBD09F026B8E3
:1098800008F054BC10B504462DF0CEFE204608F07A
:109890000BFE04F5FA60082315220249BDE81040CA
:1098A00030F054B8C0840E0838B500F5FA650446A7
:1098B000284630F0ADF9D5ED107A9FED0D7AF0EE37
:1098C000E76AF4EEC76AF1EE10FA0BD5B4F90A387C
:1098D00007EE103AB8EEC77AF7EE006AC6EE877A5E
:1098E000C5ED107A04F53654C4ED007A38BD00BFDA
:1098F0000000003410B5044606F098FA204606F041
:1099000055FB204606F0A2FC204606F021FA40F066
:1099100051F83FF07DFFBDE8104040F0DDB800BFDA
:10992000FFF7E8BF10B5044600F5205034300FF0C3
:1099300003FA14F0A7FA90F94D3003B910BD04F5FD
:1099400016500C3036F0FAFAB7EE001A90ED000A15
:10995000DFED070A21F096F894F9D03D04F668503F
:10996000012B08BF80ED1B0ABDE8104013F0D2BFE9
:1099700000000000FFF7D6BF30B5022183B00446D7
:1099800008F05EFD00285BD14FF40031204608F05E
:1099900057FD002850D14021204608F051FD0028F5
:1099A00045D14FF48061204608F04AFD002839D1A6
:1099B0002021204608F044FD30BB8021204608F0DD
:1099C0003FFD90B104F6B80033F03AFB1021204679
:1099D00008F036FD08B903B030BD04F53950203029
:1099E00003B0BDE8304050F093B84FF480212046DA
:1099F00008F026FD0028E5D14FF40021204608F0AC
:109A00001FFD0028DED1E1E742F2B4432046E15CCD
:109A100006F09AFD0028D0D004F54050383052F0BE
:109A2000CFFACAE704F6B80033F032F8C0E704F61C
:109A3000B80032F0C7FFB4E7204601F055FCAAE7B2
:109A40000121204608F0FCFC00289DD1204601F0B1
:109A500011FC04F54050383004F6B80504F53953CC
:109A600004F5155204F53651009024312846203370
:109A7000183234F0B5F84FF48051204608F0E0FC7D
:109A8000002881D004F53D5228462832C62134F002
:109A900041F804F53E5228463C32C72134F03AF8EA
:109AA00004F5405228461032C82134F033F804F54A
:109AB000425228461832C92134F02CF864E700BF1E
:109AC000FFF75ABF30B5012183B0044608F0B8FC57
:109AD00030B98021204608F0B3FCD0BB03B030BDC4
:109AE000204601F0C7FB04F54050383004F6B805B5
:109AF00004F5395304F5155204F53651009024311C
:109B000028462033183234F06BF84FF48051204649
:109B100008F096FC0028DCD004F53D522846283297
:109B2000C62133F0F7FF04F53E5228463C32C721E8
:109B300033F0F0FF04F5405228461032C82133F0CC
:109B4000E9FF04F5425228461832C92133F0E2FFFA
:109B5000BFE74FF40021204608F072FC0028BDD179
:109B600004F6B80003B0BDE8304033F063B900BF7D
:109B7000FFF7A8BF10B5044600F6FC3055F0B2FD63
:109B8000204606F06DF8204605F0D4FF204606F08A
:109B90001BF8204606F096F9204606F0AFFA20465C
:109BA00006F0E6FB04F54D501430BDE8104048F0D7
:109BB000CDB800BFFFF7DEBF2DE9F04100F6381643
:109BC0000746304616F004F8DFF83480002505E03B
:109BD000D3F8803958F8242093420DD1304614F040
:109BE00059FBECB204EB4403844207EB830305F119
:109BF0000105EDDBBDE8F08148F82430BDE8F081D7
:109C00006C290220FFF7D8BF10B5044608F016FAF9
:109C10002046102108F014FC00B910BD2046BDE814
:109C2000104001F07DBC00BFFFF7EEBF10B542F25F
:109C3000B143C35C13F001040FD042F25153C35C33
:109C4000DB0701D4012010BD00F50E503830074A63
:109C5000042136F035FE002010BD00F50E503830DE
:109C6000034A042136F02CFE204610BD8C860E08D7
:109C70006C860E0838B5054A054B146825680A46F7
:109C80002D6801462046A847002038BD88290220BB
:109C90009029022070B5044600F53350002142F2AD
:109CA000B0463430FFF7ACFCA25D2C4D60F30002EF
:109CB0000346A2552046AB7108F0FAFD42F25D530F
:109CC000E871E35C204603F001034FF6FF716B710E
:109CD00008F0B6FB00283BD142F25D5304F5F8557D
:109CE000E35CDA0705F1100523D53FF075FF204648
:109CF00000F07AF9204608F0E7FD194B1B689B6CD1
:109D000093F84C401CB195F88C30DB0606D595F8DD
:109D10008C3064F3041385F88C3070BD5BF04AFB23
:109D200095F88C30C5F8900064F3041385F88C30F6
:109D300070BD28460CF0BCFCD4F8A83804F51550CA
:109D4000B3F90E20B3F90A10183057F0E1F8CCE758
:109D5000A2590721204601F007FBBDE7C860022099
:109D600088290220FFF796BF10B5044600F59650EB
:109D700010301EF0E9FD42F2B443E35C133B012BCB
:109D800004D904F5395020304FF05CFC204607F030
:109D9000B5FF04F5F850103001210BF03DFF04F53C
:109DA0003650012124300CF025F9204606F0DCFB6A
:109DB000204600F075F9204606F09EFB204602F092
:109DC000F9F8204608F070FA04F54D50243040F0C0
:109DD00041FF4FF6FF71204608F032FB00B910BD7D
:109DE0002046BDE8104001F0E9BA00BF70B52DED86
:109DF000048B04460E4615464FF47A714FF4FA521E
:109E0000B0F90400B0EE418AB0EE609AF0EE408AFC
:109E100020F030FE07EE900AB0EE480AB8EEE71ADE
:109E2000A080DFED240A20F02DFEB4F904309FED70
:109E3000227A07EE903AF8EEE77AF0EE409A87EE53
:109E4000878A68EE288A28EE098A28EEA80AA8EEF2
:109E5000080AB5EE400AF1EE10FAB1EEC09A25D428
:109E6000B4EEE99AF1EE10FA05DDC9EE897A68EEF2
:109E7000A78A28EE278A9FED119A28EE090AD7F0C3
:109E8000C9FEF0EE409A28EE890AD8F061F829EE72
:109E9000800AD7F0A1FDDFED0A7A20EE270A86EDD1
:109EA000000A85ED008ABDEC048B70BDD8F0A2FCE1
:109EB000D6E700BF00007A4400A08C45D4023739B1
:109EC0009F0CB34507EE901AB8EEE70AD0ED207A62
:109ED00020EE270A704700BF70B52DED048B42F2CB
:109EE000505382B0C15C11F0010405D09FED3C0AD3
:109EF00002B0BDEC048B70BD0546D0F8A808DFEDBC
:109F0000399A10EE106A3FF055F8B5F93230DFEDAE
:109F1000340A07EE900A08EE903AB0EE691A00EEA5
:109F2000106AB8EEE79A20F0ADFDF8EEE88A4FF43B
:109F3000C8722146B5F93200B0EE408A20F09AFD91
:109F400039EE687A6886B4EEC78AF1EE10FA1AD54F
:109F5000B5F92E30002B3CD1B5F92C30002BB8BF11
:109F60005B429BB207EE903A38EE478AF8EEE77A0A
:109F700067EE887A87EE870AFDEEC07ACDED017A2A
:109F8000BDF904101AE079EE288AF4EEC88AF1EEE1
:109F900010FA1AD5B5F92C3000EE103A38EE688A6E
:109FA000B8EEC00A79EEE88A20EE088A88EE280A20
:109FB000FDEEC07ACDED017ABDF9041042F624031E
:109FC000E95202B0BDEC048B70BD9FED050A21463D
:109FD000F4E7002BB8BF5B429BB207EE903AC3E7B1
:109FE0000000000000007A4410B52DED028B0446FD
:109FF00000F54E50383094ED258A4CF00DF8C3072B
:10A000001CD504F54F5104F54E53D1ED026AD1ED44
:10A01000007A93ED0F8A9FED0B7A76EEA77A38EEF1
:10A02000668A67EE877A28EE078A04F54753C3ED00
:10A03000067A83ED058ABDEC028B10BDDFED027A56
:10A04000F3E700BF0000C8420000000000F5025323
:10A0500000F50150D3ED026AD2ED007AD0ED0F5A2F
:10A0600091ED006A26EEE77A67EEA57AA6EE257AEC
:10A07000E6EE267A81ED007AC2ED007A704700BFE5
:10A08000B0F92E302BB183EAE370A0EBE37080B21D
:10A090007047B0F92C000028B8BF404280B270472A
:10A0A00070B5044682B000F5F85042F230351030F9
:10A0B00001A90AF0C7FB6359984206D0064604F589
:10A0C0003950203050F002F8665102B070BD00BF28
:10A0D0000F4A13780133DBB2032B137004D800F559
:10A0E000355090ED090A704710B5044600F536501A
:10A0F00000230430137055F015FA04F5355118316A
:10A1000020F010FE04F5355080ED090A10BD00BFA7
:10A110007829022038B5044600F536502DED028B23
:10A12000043055F001FA90ED010AD0ED007A20EEEE
:10A13000000A0546A7EEA70AB5EE400AF1EE10FAAE
:10A14000B1EEC08A24D4204608F0B2FB30B1DFED76
:10A15000128AB4EEE88AF1EE10FA06DCBDEC028B4E
:10A1600004F5355494ED0D0A38BDD5ED000A95ED92
:10A17000010AD7F0D3FFDFED097A20EE270A04F5B4
:10A18000355420EE280A84ED0D0ABDEC028B38BD53
:10A19000D8F030FBD7E700BF0000C842E02E654290
:10A1A00000207047704700BF704700BF0020704715
:10A1B0000020704700207047002070470020704743
:10A1C0000120704701207047002070470120704730
:10A1D000FF2070470E4B42F2B4429A5C102A14D80A
:10A1E00001200C4900FA02F2114000290BBF502057
:10A1F00058201021182142F25D529B5CDB0748BFBA
:10A2000041F0C00040F00100704750201021F2E7FB
:10A210009029022098000100014B187B704700BF75
:10A2200090290220704700BF00B50C4883B035F07C
:10A2300085FEB7EE001A90ED000ADFED090A20F066
:10A2400021FCDFED087A20EE270AFDEEC07ACDED85
:10A25000017ABDF9040003B05DF804FB1C4F022035
:10A26000000000000000C8422DE9F0412DED028BF6
:10A270008AB004460CF0ECFB0368984D5B6B064615
:10A280009847B5F840300746D80754D4990700F1ED
:10A290009B805A0700F1DF801B0704D40AB0BDEC95
:10A2A000028BBDE8F08133688D4DDB6994F8108036
:10A2B000D5ED008A9FED8B8A304698479FED8A5AEC
:10A2C000D0ED027A95ED057AD5ED065A95ED036A43
:10A2D000D5ED046A77EE857A65EE885A26EE086A2F
:10A2E00066EE886A192368EE888A622227EE088A59
:10A2F000F1EE677A0093C22140460192042503AA39
:10A30000CDED047ACDED055A8DED066ACDED076AE7
:10A31000CDED038A8DED088A8DF8245037F032F8A0
:10A32000207C38F017FB207C37F042FD0AB0BDECF2
:10A33000028BBDE8F0816D4897ED005AD0ED004AE0
:10A34000DFED687AD0ED015A90ED026A50ED036AB4
:10A350009FED674A207C05F53E5393ED007A64EE4D
:10A36000A74A65EEA75A26EE276A66EEA76A25EE8B
:10A37000045A67EE277A192362224FF0010E0093E8
:10A38000C221019203AACDED064A8DED045ACDED0E
:10A39000075A8DED086ACDED036ACDED057A8DF88B
:10A3A00024E036F0EFFF207C38F0D4FA8046207CA1
:10A3B00037F0FEFC08F118088045BFF66FAFB5F81E
:10A3C000403099077FF565AF97ED015ADFED485AA8
:10A3D000484BDFED447A13ED067A13ED026A53ED34
:10A3E000016A207C25EE255AD3ED005A8DED045AE2
:10A3F00013ED035A65EEA75A25EE275A26EE276A73
:10A4000066EEA76A192367EE277A62224FF0020EE2
:10A410000093C221019203AA8DED065ACDED055A93
:10A420008DED076ACDED086ACDED037A8DF824E055
:10A4300036F0A8FF207C38F08DFA8046207C37F07B
:10A44000B7FC08F118088045BFF628AFB5F84030D2
:10A450005A077FF521AF97ED025ADFED255A264BBB
:10A46000DFED207A13ED067A13ED026A53ED016AEF
:10A47000207C25EE255AD3ED005A8DED045A13EDBC
:10A48000035A65EEA75A25EE275A26EE276A66EE8E
:10A49000A76A192367EE277A62220093C2210192EC
:10A4A000032703AA8DED065ACDED055A8DED076AF7
:10A4B000CDED086ACDED037A8DF8247036F062FF99
:10A4C000207C38F047FA0746207C37F071FC1837BB
:10A4D0008742BFF6E3AEB5F84030DDE690290220B2
:10A4E000285A02200AD7233C0AE81C4104590220BA
:10A4F000E02E654264590220B8590220014802F05A
:10A5000091B800BF9029022010B508460C460FF004
:10A5100041FC08B9042010BD2146024803F028F987
:10A52000002010BD90290220014801F017BD00BF96
:10A5300090290220014801F093BC00BF902902201D
:10A540000222014805F030BF90290220F0B58B8B24
:10A55000732B89B00C4657D00CD9D12B17D0B3F53B
:10A56000967F44D0B22B28D0214609B0BDE8F040F8
:10A570003DF0C8BD112B32D0152BF5D10222092197
:10A58000424805F011FF38BB042009B0F0BD0E466B
:10A590000F6856F80C0F7168B268F3686D460FC506
:10A5A0003069317D6268A36828602971374839466F
:10A5B00007F0B0FA0028E7D00EE04B6807EE903ABB
:10A5C000F5EEC07AF1EE10FADEDD9FED310A31488A
:10A5D00027EE800A53F01EFB002009B0F0BD0222D6
:10A5E00010212A4805F0E0FE0028CDD0F4E72748E6
:10A5F00042F25D53C35CDB07C6D50222032105F09E
:10A60000D3FE0028E8D1BFE70B6800EE103AB5EEA4
:10A61000C00AF1EE10FAB7DBDFED1F7AB4EEE70AFD
:10A62000F1EE10FAB0D8CB689FED1C7A07EE903AA5
:10A63000F0EEE76AF4EEC76AF1EE10FA16D5A268FA
:10A6400063681248FCEEE77A00EE903ACDED067AA8
:10A6500007EE902AFDEEE77A9DF81820CDED077AF7
:10A660009DF91C1003F01EF800208EE700EE103A52
:10A67000F7EE000A20F0FAF8002885D0236800EEF3
:10A68000103AE36807EE903AD9E700BF902902201C
:10A690000000C842705B02200000B4430000003498
:10A6A00008B538F023FF40F6C712002310431943C2
:10A6B00008BD00BF38B504460D465AF07BFE42F295
:10A6C0003853044AD05029462046BDE8384038F077
:10A6D000A1BD00BF90290220054A42F2B143D35CDC
:10A6E00013F0010301D11846704738F095BB00BF45
:10A6F00090290220054A42F2B143D35C13F00103D2
:10A7000001D11846704738F0BDBC00BF9029022027
:10A7100010B504460FF060FB204610BD38B54B69FC
:10A72000F7EE000A00EE103A0C46054620F09EF8BF
:10A7300038B13EF079FB064A062136F0C1F8032015
:10A7400038BD21462846BDE838403CF017BA00BF66
:10A750008C880E0810B50D4842F25D53C35C13F0AF
:10A76000010407D03EF060FB094A062136F0A8F844
:10A77000042010BDFFF75AFA08B9042010BD0DF0EF
:10A78000C5FE01210DF000FD204610BD90290220DC
:10A79000B4880E080B7ADB0706D50448CB6842F272
:10A7A000640282581344CB60704700BF9029022096
:10A7B00070B5124C94F8283C86B0EBB104F62444F2
:10A7C000067C5AF0F7FDD4ED007A9FED0D7A0290E9
:10A7D00067EE877A8322FDEEE77A0E2317EE904A22
:10A7E000002501923046009302AA8F21ADF8144053
:10A7F0000395049536F0C6FD06B070BD9029022081
:10A800000000C8420B4B42F250529A5CD10703D46D
:10A8100042F6F141595C09B10520704712F00E0F64
:10A82000FAD142F25D529B5C13F0010F14BF042079
:10A8300003207047902902200C207047024A42F200
:10A84000B443D05C704700BF9029022070B52DED55
:10A85000028B0446007C38F07DF80546207C37F0FA
:10A86000A7FA1135854203DB0020BDEC028B70BDD9
:10A8700007203FF0A7FBB6EE008AF0EE487AE0EE44
:10A88000087A4649F7EE008A38EEE70A20463BF0A0
:10A8900053F9207C38F05EF80546207C37F088FAC2
:10A8A00011358542E0DA06203FF08CFBA0EE088AE5
:10A8B0003B49204638EEC80A3BF03EF9207C38F090
:10A8C00049F80546207C37F073FA11358542CBDA1A
:10A8D000344A354942F634532046D358002BB8BF8A
:10A8E00003339B1000EE103AB8EEC00A3BF024F997
:10A8F000207C38F02FF80546207C37F059FA1135C6
:10A900008542B1DA3B203FF05DFBB6EE008AF0EE07
:10A91000487AE0EE087A25492046B0EE670A3BF017
:10A920000BF9207C38F016F80546207C37F040FA09
:10A930001135854298DA3C203FF044FBA0EE088AAE
:10A940001B492046B0EE480A3BF0F6F8207C38F070
:10A9500001F80546207C37F02BFA1135854283DA61
:10A96000144E154996ED000A20463BF0E5F8207C90
:10A9700037F0F0FF0546207C37F01AFA1135854292
:10A98000BFF672AF33790D4900EE103A2046B8EEAB
:10A99000400A3BF0D1F8012067E700BFD0880E08DD
:10A9A000D8880E0890290220E0880E08EC880E084E
:10A9B000F4880E08CC560220FC880E0808890E0880
:10A9C00026290AD03E2908B503D1FFF73FFF012011
:10A9D00008BDBDE808403CF07BBD0120704700BFCA
:10A9E000034A42F2B043D05CC0F30010704700BF8E
:10A9F0009029022070B590F8ED386FF3000380F8CD
:10AA0000ED3804465AF0D6FC1E4A1368C31AB3F553
:10AA10007A7F054629D81C4A1368EB1A142B15D8DF
:10AA20001A490B6841F28832EB1A934207D904F5B0
:10AA30000E500D603830164A062135F041FF94F86B
:10AA4000ED3843F0010384F8ED3870BD04F50E567F
:10AA50003836304615603EF017F930463DF07EFA44
:10AA600004F5056028F0C4FCDAE704F50E56383624
:10AA70003046002115603AF0A5FD304603213AF03A
:10AA8000A1FDC8E780290220842902207C29022018
:10AA9000C8890E08002070472DE9F0412DED048B88
:10AAA0009FED2E0A9FED2E8A8EB004462D4822F08F
:10AAB000AFFD21EE081A2C4894F81080FDEEC17A03
:10AAC00060EE888ACDED037A20EE089ABDF90C502D
:10AAD00052F0A4FF07EE900AF8EEE77A224867EEFC
:10AAE000887A0026FDEEE77ACDED037ABDF90C40B9
:10AAF00052F0A4FFDFED1D7A1D4820EE080AB4EEE7
:10AB0000E70AF1EE10FA49BFFCEEC07A4FF6FF7784
:10AB1000CDED037ABDF80C7050F0DAFEDFED107A5F
:10AB20008DED079A20EE270A1A23B722019240469C
:10AB3000009307AA3E21CDED088AADF83050ADF85C
:10AB40003240ADF834708DED090A0A960B9636F056
:10AB500019FC0EB0BDEC048BBDE8F0819F0CB34531
:10AB60000AD7233C2C580220705B022000FF7F474D
:10AB7000C85902202DE9F0412DED028B05464B7A94
:10AB8000887ACA7A43EA002343EA0243542B9AB0F4
:10AB90000C4600F0498111D9872B00F2DD80862B0D
:10ABA00007D2562B5BD0842B40F0A78197482EF01C
:10ABB000CFFB1AB0BDEC028BBDE8F081012B00F099
:10ABC0000981C0F0FF80452B00F09080522B40F0AF
:10ABD0009481CD78272D28BF2725272200210AA878
:10ABE000DAF014F804F10C012A460AA8D9F0E8FFBB
:10ABF0009DF84E60740600F1E48116F0C00FD8D1C4
:10AC0000DFED830A9DED120AB7EE001A1FF03AFF3E
:10AC1000F6EE000AB0EE408A1FF028FE002840F051
:10AC2000E581F6EE007AB4EEE78AF1EE10FA40F331
:10AC3000118238EE678A774B38EE088A93ED000A66
:10AC400028EE000A0B990C9C0D9A0E9B06917248F7
:10AC5000079406A90892099303F0B2FEA9E7CE78FB
:10AC6000352E28BF3526352200210AA8D9F0CEFF7F
:10AC700032460AA804F10C01D9F0A2FF664A42F25A
:10AC8000B443D35C042B00F04781032B00F03E81DA
:10AC9000022B8ED1BDF858305A0700F0E78103F03F
:10ACA000380603F4E0740023039304930593002E05
:10ACB0007FF47FAF002C3FF47CAF9FED586ADDED51
:10ACC0000E6A9DED0F7ADDED107A534866EE866AC6
:10ACD00027EE067A67EEC67A06A9CDED066A8DEDF7
:10ACE000077ACDED087A03F01DFC62E74A4DCA7978
:10ACF000B5F90C309A427FF45CAFCA780B2A4FF05A
:10AD0000000328BF0B220AA80C310B930A93CDF83D
:10AD10002F30D9F055FF9DF83220B5F90A309A420C
:10AD20007FF447AFBDF92E00BDF83040BDF92C309F
:10AD3000BDF92A20BDF928108DE81100284606F03B
:10AD4000BBFB5AF037FB42F23C53E8505AF032FB5F
:10AD500042F23853E8502CE7F32B40F0CE80CD7808
:10AD60003D2D28BF3D253D2200210AA8D9F04EFFE8
:10AD70002A4604F10C010AA8D9F022FF0A9D0B9E75
:10AD80000C9C35B92EB924B90121234801F0E6F80D
:10AD90000FE706A80EF012FD214B1F48089583FB14
:10ADA0000423E417C4EBA30406A90996079401F051
:10ADB00037F800287FF4FDAE06A90122164801F0FD
:10ADC0004FF8F6E6144DCA79B5F90C309A427FF483
:10ADD000F0AEBBE7CD781F2D28BF1F251F22002115
:10ADE0000AA8D9F013FF2A460AA804F10C01D9F0E9
:10ADF000E7FE0B9B98007FF5DCAE0C9B99003FF5BE
:10AE0000D8AE084854F090FCD3E600BF604302205F
:10AE100000000000905B0220902902200000C84240
:10AE2000676666668C350220CD78352D28BF3525BE
:10AE3000352200210AA8D9F0E9FE2A460AA804F121
:10AE40000C01D9F0BDFE9A4A42F2B443D35C042B04
:10AE500008D0032B7FF4ADAE42F61C03D35C042B69
:10AE60007FF4A7AE9DF85C50012D03D0EB1F022BA1
:10AE70003FF69FAEBDF85830002213F0070403F0F0
:10AE8000380703F4E07803920492059240F0B18011
:10AE90009FED886ADDED0C6A9DED0D7ADDED0B7A94
:10AEA000A5F1080666EE866A27EE467A67EE867A90
:10AEB000F3B2012BCDED046A8DED057ACDED037A69
:10AEC00040F2EF80073D022D00F2DA807A4854F01C
:10AED00029FB014603A822F071FB00230693079388
:10AEE0000893002F00F08A80B8F1000F3FF461AEA4
:10AEF00003A96F4803F08EFB5BE6214628463DF030
:10AF000041FC1AB0BDEC028BBDE8F08142F61C0397
:10AF1000D35C042B7FF44DAEBDF8583003F03806F7
:10AF200003F4E0745B077FF4BEAE0B9FDDF8308066
:10AF30000023384641460393049305931FF074FFA2
:10AF400000283FF436AE284602AA9DF85C103DF07A
:10AF500053FF00283FF42DAEDDED0D7A9FED558AAD
:10AF6000029B009367EE887A3946FDEEE77A424607
:10AF700017EE903A06A80EF02DFC06A803A90EF0D5
:10AF8000A3FD00283FF415AE002E5FD1002C3FF446
:10AF900010AEDDED0E6A9DED0F7ADDED107A4448BE
:10AFA00066EE886A27EE087A67EEC87A06AA03A9D1
:10AFB000CDED066A8DED077ACDED087A03F064FCDD
:10AFC000F7E55AF0F7F93A4A3C4D43F208430AAC28
:10AFD000D0500FCC0FC50FCC0FC594E8030045F837
:10AFE000040B25F8021B090C297006E69FED340AB4
:10AFF00028E6002F7FF4DDADA5F108069FED2D6A50
:10B00000DDED0F6A9DED107ADDED0E7A66EE866A53
:10B0100027EE467A67EE867AF6B2012ECDED076A04
:10B020008DED087ACDED067A0AD98CBBB8F1000F08
:10B030003FF4BFAD06AA03A91D4803F025FCB8E5FF
:10B0400007AA06A91A48FFF701F8EEE7002C3FF41B
:10B05000B0AD4DE71B4B38EE678A93ED000A38EE32
:10B06000088AB0EEC00A28EE000AEBE5DDED0D7AA5
:10B070009FED107A144B67EE877AC3ED007A98E55E
:10B080009DED050A0A4806F051FE8DED050A24E7FC
:10B09000B8F1000F3FF48DAD06A9054803F042FA60
:10B0A00087E504AA03A90248FEF7D0FF0AE700BF1C
:10B0B000902902200000C842145702209C5D022003
:10B0C00000000000945B0220D45A022008B50B68EF
:10B0D00007EE103AF6EE007AB4EEE77AF1EE10FAE7
:10B0E00001DC042008BD0248FEF74CFB002008BD2F
:10B0F00084560220002070470020704700207047CF
:10B10000FA207047F8B500F110010EC9044643F467
:10B11000E05342F2B140374DA36141F4E05742F4AD
:10B12000E056276166612B5CD80705D541F60843D8
:10B1300019431A432161626114F048FE90F8EC3122
:10B1400090F8C222C3EB431300EB830393F86930FA
:10B15000002A43D0012B41DD6269236942F02002BD
:10B16000626143F0200343F4C04342F2B4422361DE
:10B17000AB5C102B05D801221F4902FA03F30B42E6
:10B1800030D1A36923F0080342F25452A361AA5CB0
:10B19000920744BF43F00803A36190F8EC1114F048
:10B1A000E5FD18B1A36943F02003A361134B1B789D
:10B1B000DB0712D5124922696369086842F480727C
:10B1C00043F480732261636138B119212EF074F960
:10B1D00018B1A36943F48073A361F8BD002BBBD100
:10B1E0002369C0E76269A36942F4C042626143F423
:10B1F000C043C7E7902902209C020100D0450220ED
:10B200002C61022070B54FF4F8700D4616460EF012
:10B21000DDFD32460446294638F0D2FB014B23605F
:10B22000204670BDE4890E0808B590F88030994238
:10B2300004DC00EB8100D0F8840008BD2FF090FB07
:10B240004FF480212FF078FB002008BD08B590F85E
:10B250008030994204DC00EB8100D0F8840008BD06
:10B260002FF07EFB4FF480212FF066FB002008BDFD
:10B27000704700BF70B5044600F53A508AB09FEDA4
:10B28000190A1C3022F0C4F90AABCDED080A8DED85
:10B29000091A8DED070A13E9070001AE86E80700D9
:10B2A00004AB9DED030A83E8070004F5F8551FF091
:10B2B0009FFB103504F6B8043246294620468DED32
:10B2C000030A32F0D5F90AF087FE0AF079FE294622
:10B2D000204632F04FF82946204632F0DFF80AB017
:10B2E00070BD00BF9F0CB34530B589B00023082264
:10B2F000A32595210446019306938DF80620029319
:10B30000039304930593CDF81B308DF804508DF80A
:10B3100005105AF057F804F518532433CDF80700F8
:10B3200004F518501B68CDF80B101830CDF80F300D
:10B3300034F004FE04F5185304F52A52283301684A
:10B3400015691B68CDF8131004F6B80001A91B227B
:10B35000CDF81750CDF81B302FF08CFD09B030BD63
:10B3600000F6B80030F0A8B970B50D4684B04FF6BD
:10B37000FF711446064607F063F8E0B10023062289
:10B38000A3209521009301938DF80220029303934B
:10B390008DF800008DF801105AF014F81022CDF845
:10B3A0000300CDF8071006F6B80069468DF80B507B
:10B3B00003942FF07BFD04B070BD00BF38B590F84A
:10B3C000613C42F254525B01825C0446184402F034
:10B3D000010290F8851C002939D090F8861C0029BC
:10B3E00038D1AAB1E21892F8861C002938D142F26D
:10B3F0005455635D61F30003635530F0CDF9635D2F
:10B4000013F0010F0CBF04220022122130F082F948
:10B4100094F8C03D42F25455C3EB031304EB0313FD
:10B42000625D93F8D93DC2F3800199421CD063F369
:10B430008202625530F0B0F9635D13F0040F0CBF67
:10B44000042200220321BDE8384030F063B9002A0D
:10B45000CDD1DDE790F8871C0029C2D0002AD7D1D2
:10B46000234493F8871CC2E738BD00BF2DE9F0479D
:10B4700024268AB0154680468946324601A8002116
:10B480001C46D9F0C3FB95220A23A3218DF8052081
:10B490008DF806308DF8041059F094FFD5F800A00F
:10B4A000D5F804C0D5F808E0CDF807002768CDF836
:10B4B0000B106568A3688DF80F90324601A908F655
:10B4C000B800CDF810A0CDF814C0CDF818E007975B
:10B4D000089509932FF0CEFC0AB0BDE8F08700BFB5
:10B4E00010B542F2B44342F2B5420446825CC15CFC
:10B4F00000F6B8002FF000FE04F5F85010300BF005
:10B500006FFA04F63810BDE8104013F059BD00BFC3
:10B5100000F6B800A32201492FF076BA3C8B0E0842
:10B52000F0B52DED028B33268FB00446324601A8CC
:10B530000021D9F06BFB95220223A3218DF8052071
:10B540008DF806308DF8041059F03CFF04F53B529D
:10B55000134634333032CDF8070004F51650126824
:10B560001B68CDF80B100C30CDF80F20CDF8133040
:10B5700034F0E4FC9FED308A90ED000ADFED2F8A75
:10B58000F0EE480AB7EE001A1FF07CFA04F54553B6
:10B59000D3ED017A87EEA87A04F53650043004F52D
:10B5A000345510EE103ACDF8173004F517533033F8
:10B5B00017EE102A1B68CDF81F20CDF81B3053F072
:10B5C000B5FF80EE280A94F8613C04F5455004EB81
:10B5D000431303F67843324641F642461B6834F87B
:10B5E00006E0CDF8273001A9ADF82DE095ED0B7AF6
:10B5F000D0ED0A7A10EE100ABDEEC77AFDEEE77ABA
:10B60000CDF8230042F6285017EE106A17EE905A34
:10B6100018EE103A275AADF82B6004F6B800ADF8D2
:10B620003350CDF82F30ADF835702FF023FC0FB02C
:10B63000BDEC028BF0BD00BF000000000000C8425E
:10B64000704700BFF8B5044607463EF0A5F80D4B1D
:10B6500044F8143B0C4E07F5257520463DF07EFC62
:10B6600044F8286BA542F8D128463EF019FE07F2AF
:10B6700024705AF047FB384604492BF077FF3846D0
:10B68000F8BD00BFB4C70E0898B70E08F4B70E088F
:10B6900070B5144E35460FCD90B004AC0FC40FCD2D
:10B6A0000FC495E80F0084E80F0004A800220121D0
:10B6B0002CF00EFC08A8002201212CF009FC0CA89B
:10B6C000002201212CF004FC06F130030FCB6C4664
:10B6D00007C4002243F6F071684623803EF09EFCCA
:10B6E00010B070BD98810E08F8B504462BF09EF995
:10B6F000002800F09B8004F5F853514993F89C20F2
:10B700000D686FF3820283F89C20A86C002104F17D
:10B7100008061BF007FC30462BF0A2FD00287FD165
:10B72000686B484903681B6898473EF0A3FE2AF0FF
:10B730009FFDB4F908309FED447A013B07EE903A43
:10B74000F8EEE77A0123F0EEE77AF4EEC77AF1EE4D
:10B7500010FA48BF1946304658BF002123812BF00C
:10B7600011FD686B394A036839491B68984759F0DD
:10B770001FFE07462CF052FD6D6B2B681E6859F0BA
:10B7800017FE3449C21B2846B04705210022324823
:10B790002CF09EFB314A1388204643F008031380A7
:10B7A000FFF776FF9FED2E0A2E482CF0FBFF9FED52
:10B7B0002E0A2E482CF0F6FFB0EE000A2C482CF092
:10B7C000F1FF9FED2C0A2C482CF0ECFF9FED2B0A8B
:10B7D0002B482CF0E7FF9FED2B0A2B482CF0E2FFC3
:10B7E0009FED1F0A29482CF0DDFFB0EE080A28481B
:10B7F0002CF0D8FF9FED270A27482CF0D3FFB1EE9D
:10B800000C0A26482DF014F8B2EE000A24482DF058
:10B810000FF8B2EE040A2348BDE8F8402CF0C2BF8E
:10B82000B4F90830012B7FF47BAFA0E7044B1E492D
:10B830001B68586B03681B6898471C4859F0A4FDA7
:10B840008829022034B90E080000003458B90E08C7
:10B8500060B90E0864B80E08A4B70E08186102207B
:10B860000000000078B80E080000E0438CB80E0815
:10B870009CB80E0800D8D647A8B80E0800808944A6
:10B88000B8B80E0800007A44C4B80E08D8B80E083C
:10B89000E4B80E080000C842F4B80E0804B90E0857
:10B8A00014B90E0824B90E0844B80E0854B80E088E
:10B8B000002070471029DDBF282303FB010014304E
:10B8C0000020704701207047FEF74EBA00F0EEBE30
:10B8D00001F0FEB800F080BB04F08CBA70B542F203
:10B8E0006842064642F2B83380580F490F4A316029
:10B8F000F25008B10EF06CFA41F2D0230C4AF2502B
:10B9000006F5B35506F5B55410350C34143C2046F5
:10B9100034F050F9A542F9D1D6F8200C10B10368E3
:10B920005B689847304670BDA8860E08487B0F08B4
:10B93000D8160F082DE9F04F2DED028B0246E54B8E
:10B9400042F8043B89B004465A30039253F062FE39
:10B9500004F15C0053F05EFE04F15E0053F05AFE09
:10B9600004F1600053F056FE04F1620053F052FE01
:10B9700004F1640053F04EFE04F1660053F04AFEF9
:10B9800004F1680053F046FE04F16A0053F042FEF1
:10B9900004F16C0053F03EFE04F16E0053F03AFEE9
:10B9A00004F1700053F036FE04F1720053F032FEE1
:10B9B00004F1740053F02EFE04F1760053F02AFED9
:10B9C00004F1780053F026FE04F19C00FFF73AFEE4
:10B9D000C14B0593049404AB93E8060004F5FA60A8
:10B9E0002DF074FF04F5056027F080FB04F13401AD
:10B9F00004F6B8002EF0DAFF04F63810002612F034
:10BA0000CBFB04F6FC3053F023FEC4F8206C04F6A4
:10BA100038400BF061FB04F6685010F085FA04F52D
:10BA2000CE5504F59650103510301CF005FA284616
:10BA30002CF062FF04F5E25241F6424E137841F6D3
:10BA4000444103F0FE0366F34103104604F5F85742
:10BA5000137002F1180824F80E6010376650083091
:10BA600034F026FA04F5ED592A464046394624F0CA
:10BA700023FA2A463946484626F0D8F942F2A0254C
:10BA800041464A460123384609F06CF942F2A422A5
:10BA9000645142F2A82E42F2B02142F2B42342F2A3
:10BAA000AC208E4DA5508E4A8E4D44F80E40255048
:10BAB000645004F50B50E2500DF080FE42F29829DC
:10BAC00004F50B5004EB090518300DF077FE4FF626
:10BAD000FF78854BA5F85060C5F89460A5F85280B2
:10BAE000A5F85480284681491D602BF03FFDA5F83C
:10BAF0002080A5F8388004F809606B7842F2303273
:10BB000003F0FE0366F3410304F50C506B7042F240
:10BB1000B838A65034302EF0C3F9754B44F80830CD
:10BB200004F51056A04408F11C0538362846143593
:10BB300039F092FDB542F9D142F2684508F198001A
:10BB400059F06AFA631900221E21DA801A8199805D
:10BB50004FF4C3600EF034F9605104F51250183000
:10BB600059F05AFA634B1A68002A00F0338142F206
:10BB7000B83042F2B54242F2B44142F2B7435E4EAF
:10BB800026504FF0130E002604F5125504F801E07C
:10BB900005F15000A654E6544AF050F83835574B9A
:10BBA00057491D6028462BF0E1FC42F2585804F535
:10BBB000135004EB080930309FED528ADFED528AB2
:10BBC0000DF098FB4FF4F5724FF4C871484654F0ED
:10BBD00073FF4FF07E554D4B44F808304846C9F886
:10BBE000B8524B4989EDAF8A2BF0C0FC04F52053C5
:10BBF00042F61C0E42F61D0246499D6107910694CD
:10BC0000454904F80E6004F5205008ABA65442F6EE
:10BC1000F44513E90C00343000914FF400710CF03E
:10BC20005FFD04F5355B601955F07CFF0BF1040BEB
:10BC30003A4B635158460DF0C1FD42F6545304F59A
:10BC4000365242F684500125E55404EB000A04F50F
:10BC50003551154681ED068A81ED078A81ED088A06
:10BC600024352F49C2ED008A04F53958215008F1D6
:10BC7000200882ED028A82ED038A82ED048A82ED39
:10BC8000058A82ED068A82ED078A3946B0EE480AB7
:10BC9000CAF81C703246284604F540570AF03CFAB0
:10BCA0003837B0EE680A039A4B46294640464DF0B5
:10BCB00037FB4B4652462946CDF8008038464DF0BA
:10BCC0006BFE04F547503B462A465146CDF80080AE
:10BCD000203027E0A8860E08C9B80008CDB80008B3
:10BCE000D5B80008D1B8000874600220B0220F084F
:10BCF000487B0F083C6902200C8B0E08A05F0220D5
:10BD0000A0D90E08000000000AD7233B94A60F0814
:10BD100060A50F08D9B8000864860E0890840E0844
:10BD200010A40F0851F0B2FE3B462A465146CDF80A
:10BD3000008004F54B5051F0FDFB04F54C503B46A0
:10BD40002A465146103051F0D7F904F54D500C30C9
:10BD500045F016FF43F25433214AE65404F54D50A2
:10BD600023445946243013603EF0AAFE04F54E5099
:10BD700038304AF031F904F5505031462C22083061
:10BD8000D8F044FF174A184913780A602BB30136DC
:10BD9000B6B206EB460312F83330002BF7D142F26D
:10BDA000545042F25051225C635C104F42F0050245
:10BDB000225443F2544543F25840002243F0010319
:10BDC00063546251225020463E8009B0BDEC028B84
:10BDD000BDE8F08FC3F80080C9E61E46DFE700BF6C
:10BDE000A46B022068B90E08286102202461022099
:10BDF00010B559F0B5FC064C064B18602046FFF70D
:10BE000099FD2046044A0549BDE81040D5F0DEBD45
:10BE1000902902208829022068700220DDB80008DD
:10BE200030B585B0044668460D460DF0C7FC04F5F4
:10BE3000F8506946103008F07BFD60B1684629462D
:10BE40000DF042FFDFED057AB4EEE70AF1EE10FAED
:10BE5000CCBF0120002005B030BD00BF00504347DB
:10BE60002DE9F04300F5F8548BB0064610346846CF
:10BE70000F4691460DF0A2FC6946204608F058FD99
:10BE800020B9002528460BB0BDE8F08394F8603156
:10BE90003946204603F0010806F0DAFE0546002880
:10BEA000EFD0B8F1000F0DD0B9F1000FEAD094F83F
:10BEB00060314D4643F00203284684F860310BB0F0
:10BEC000BDE8F08338460DF0ADFD06F5205319218D
:10BED000304683ED060AFFF743FA4FF4807130468F
:10BEE00006F0AEFA0028DFD006F50A57183706A884
:10BEF0000DF064FC4146384604AA21F009FD0028F3
:10BF0000D2D004AA394606F6B8002FF027F9B9F1C5
:10BF1000000FCCD1B6E700BF30B5054689B0684602
:10BF200005F5F8540DF04AFC103404A80DF046FC59
:10BF30002046694609F0D4FF08B909B030BD04A90C
:10BF4000204608F0F5FC0028F7D0059B01936946D0
:10BF500028460022FFF784FF09B030BD30B585B018
:10BF6000044668460D460DF029FC04F5F850694674
:10BF7000103009F0B5FFC0B194F8613CDDED017AF5
:10BF80009FED0B7A04EB431303F67843D3ED006A7D
:10BF9000F8EEE77A2A46E6EEC77A69462046FDEED5
:10BFA000E77ACDED017AFFF75BFF05B030BD00BF4A
:10BFB0000000C84200F5F853103393F86031DB07F6
:10BFC00009D442F25D53C15C11F0010101D1FFF7C8
:10BFD000C5BFFFF7A1BF704710B5084A137843F0FB
:10BFE00080031370044601F091FF00B110BD20469C
:10BFF00008220221BDE8104004F0D6B9E460022016
:10C00000F0B501F108030F4604460FCB87B002AD2F
:10C0100085E80F00049B0BB9059BCBB1039B13B3C1
:10C0200042F628030022E25042F62606BB88A353BC
:10C030002946204601F054FAA35B3BB904F5475466
:10C0400094F8243043F0020384F8243007B0F0BDA4
:10C0500042F6505342F64C52E3580593039BA258C4
:10C060000492002BDCD128460DF0FAFB04F535567E
:10C070000436014601AA30460DF0FEFB58B942F6DF
:10C0800048533046E6580DF0EBFB31460246284651
:10C090000DF0C8FBC4E7019E2846F4E7F0B58DB06B
:10C0A0000D4604AC064620460DF088FB2B690BB903
:10C0B0006B6973B305F108010FC9224D84E80F00C5
:10C0C00006F535500023043003AA03212B700DF030
:10C0D000D3FB60B942F648530122F15820460DF0D7
:10C0E000A1FB2146304601F0FBF90DB0F0BD08AAD6
:10C0F000032120460DF0C0FB0028EBD0032203995A
:10C1000020460DF08FFB2146304601F0E9F90DB0D5
:10C11000F0BD0C4F42F6505242F64C51012008AD92
:10C12000B25871580090387028460DF053FB95E8CE
:10C130000F0084E80F002146304601F0D1F90DB020
:10C14000F0BD00BFF05D022070B5083105460FC993
:10C150008CB004AC84E80F00069B0BB9079B3BB383
:10C16000059B2BB12146284601F0BAF90CB070BDF1
:10C1700020460DF075FB05F535560436014608AA34
:10C1800030460DF079FB80B942F648533046EE5800
:10C190000DF066FB3146024620460DF043FB21467A
:10C1A000284601F09DF90CB070BD089E2046EFE7CF
:10C1B00005F54750002301A9203001930293039312
:10C1C00051F068FD01A908A80DF028FD0A9A0B9B03
:10C1D00006920793C4E700BFF0B501F108030E46CD
:10C1E00005460FCB87B002AC84E80F00049B0BB967
:10C1F000059B6BB1039BB3B1B3881B0A00EE103AE9
:10C2000021462846B8EE400A01F090FD07B0F0BD87
:10C2100042F6505342F64C52EB580593039BAA58F2
:10C220000492002BE8D120460DF01AFB05F5355796
:10C230000437014601AA38460DF01EFB48B12046DE
:10C24000019F0DF00DFB3946024620460DF0EAFA3B
:10C25000D2E742F648533846EF580DF001FB394615
:10C26000024620460DF0DEFA2FF096FA0222152142
:10C270002FF050FAC0E700BF2DE9F04701F10803A5
:10C28000884605460FCB92B004AC84E80F00069BAD
:10C2900013B9079B002B66D0059B002B6ED00DF1C8
:10C2A000300A42F628030022EA5042F62603B8F884
:10C2B0000420EA520EAF38460DF080FA42F2EA222C
:10C2C0004FF6FF73A95A994206D005F50A50183067
:10C2D000524621F01DFB90B908AE30460DF06EFAC3
:10C2E000B8F804304FF00109F3B1002300964A4634
:10C2F0002146284601F036F912B0BDE8F087BDF8B6
:10C300003230102B01D0522BE6D1BDF8349008AE5C
:10C3100019F10009304618BF4FF001090DF04EFA2F
:10C32000B8F80430002BE0D1B8F8001005F50A5039
:10C33000013189B25246183022F0F2FB0028D4D0E5
:10C3400097E80F0086E80F000A9B0BB90B9B7BB3A5
:10C35000099B002B33D0BDF83230102B45D0522B27
:10C36000C3D10223C2E742F6505342F64C52EB5877
:10C370000793059BAA580692002B90D120460DF0FA
:10C380006FFA05F5355604360DF1300A014652466E
:10C3900030460DF071FA50BB42F648533046EE5825
:10C3A0000DF05EFA3146024620460DF03BFA78E782
:10C3B000079B0B93099B069A0A92002BCBD1304620
:10C3C0000DF04EFA03AA014620460DF055FA88B149
:10C3D000039F30460DF044FA3946024630460DF0D0
:10C3E00021FABDF83230102BB9D101237EE70C9E23
:10C3F0002046D5E7059F2046ECE700BF30B583B067
:10C4000004460D4658F0D6FF42F63003E050D5ED15
:10C41000027AF5EEC07AF1EE10FA18DD9FED147A8B
:10C4200067EE877A42F62C02FCEEE77A17EE903A36
:10C43000A3501049104A04F50E50A1FB03133830E5
:10C440009B09062103B0BDE8304034F039BA49F009
:10C4500035FD95F90E3095F90D2095F90C10002554
:10C46000009549F0ABFC42F62C020346A050E0E7F1
:10C4700000007A44D34D62100CC80E08DFED0A7A32
:10C4800091ED041AD1ED030A91ED020A8B884FF465
:10C490007A7121EE271A60EEA70A20EE270A01FB27
:10C4A00003F102F061B800BF0000C84200F5475335
:10C4B00020331B79DB0726D570B5164A42F62806CD
:10C4C00053780D46815943F0010304465370E1B19E
:10C4D00058F070FF42F6280342F62602E3580E4950
:10C4E000A25AC01AA1FB0030B2EB901F01D9002064
:10C4F00070BD04F50E5038302B88084A062134F000
:10C50000DFF9012070BD0020704758F053FFA051A3
:10C51000DEE700BFE4600220D34D621044C80E087D
:10C52000F0B5154E357887B065B1012D02D00120E8
:10C5300007B0F0BD00F547502030007900F0010051
:10C5400007B0F0BD00F5475320331B7913F001030A
:10C5500002D1184607B0F0BD01274A690969009762
:10C5600004462B4602A80DF035F9204602A900F03A
:10C57000B7FF37702846DBE7F05D022000F5475330
:10C5800020331B79DB0721D570B542F628060D460E
:10C5900083590446E3B158F00DFF42F6280342F6F2
:10C5A0002602E3580C49A25AC01AA1FB0030B2EB94
:10C5B000901F01D9002070BD04F50E5038302B8833
:10C5C000064A062134F07CF9012070BD0020704736
:10C5D00058F0F0FEA051DEE7D34D621044C80E08BB
:10C5E00010B542F654530446C35C032B02D003211A
:10C5F00001F034F841F6287242F66C53A058E35823
:10C60000C01A1EF0A1F9DFED067AB0EEC00AB4EE52
:10C61000E70AF1EE10FA94BF0120002010BD00BF20
:10C620000000484308B542F2B443C35C042B08D071
:10C63000032B01D0002008BD42F61C03C35C042B71
:10C64000F8D14B88102B0DD0732BF3D10B464A7CBD
:10C65000D3ED030A91F9101093ED020A01F022F8CC
:10C66000012008BD0831BDE8084002F009B800BF4C
:10C6700038B58B88012B14D00B691BB94B690BB9EA
:10C68000CB6873B101F1080421460546FFF7C8FBEA
:10C6900000B138BD024621462846BDE83840FFF7C4
:10C6A000DFBB0021BDE83840FFF758BCF0B50D46B0
:10C6B00083B04FF48071044605F0C2FEB8BBE86851
:10C6C00007EE900AF8EEE77AF5EEC07AF1EE10FA8E
:10C6D0000EDDFBF74FFF04F50E543834CDE90001B1
:10C6E0007B4A2046042134F0EBF8002003B0F0BD73
:10C6F00005F1080738460DF0B3F80128064637D192
:10C700006B885D2B00F088801AD9B22B00F0A080D6
:10C7100055D9C92B3AD05AD9CD2B00F0AE80DE2B9B
:10C7200053D120462946FFF7A9FE0120DEE704F594
:10C730000A5118312A4604F6B8002EF00FFDBEE764
:10C74000132B5BD02ED9152B26D0C0F0AB80522BEB
:10C7500000F0A2805C2B38D1AB88002B00F0B680B3
:10C76000204601F0DDFF204600F056FF0120BDE726
:10C7700038460DF075F843B204F50E503830554A7E
:10C78000042134F09DF8002003B0F0BD2046394666
:10C7900000F0EEFF3046A9E720462946FFF77EFC71
:10C7A0003046A3E7112B00F08B8000F28380102B22
:10C7B0000BD120462946FFF723FC304696E7722B23
:10C7C0000DD0732B38D0702B2CD000208EE7B32BDC
:10C7D000FBD120462946FFF74BFF304686E7D5EDD3
:10C7E000027A9FED3D7A67EE877A42F67853FDEE46
:10C7F000E77A304617EE902AE25077E7204629463E
:10C80000FFF7A2FC42F628030022E25042F626037C
:10C81000AA88E252304669E720462946FFF7EEFD36
:10C82000304663E758F0C6FD42F67C539FED2B7A05
:10C83000E050D5ED027AD6E720466A7C95F91010D3
:10C84000D5ED030A95ED020A00F02CFF30464DE7C6
:10C85000D5F8093007EE903AF5EEC07AF1EE10FA0D
:10C860007FF744AF9FED1C0A04F54750203027EEB8
:10C87000800A51F0CFF9304638E704F54D5424349E
:10C880002046A17995ED041AD5ED020A95ED030A2B
:10C890003EF00AFA304629E720462946FFF7ECFC2D
:10C8A000304623E704F501512046203100F018FE00
:10C8B00030461BE720462946FFF78EFC304615E739
:10C8C00020462946FFF740FC30460FE701200DE7E0
:10C8D0001CC80E0830C80E080000C84200007A4488
:10C8E00042F61C03C35C012B17D000F54C5090EDB1
:10C8F0000F6ADFED186A0B7986EE267A3C3007EE78
:10C90000903AF8EEE77AB0EEC77AB4EEE77AF1EE55
:10C9100010FAACBF01200020704700F547532033C8
:10C920001B7913F0010301D11846704730B5044656
:10C9300000F5365085B00D46043052F0F3FD05F198
:10C940000801204605F016FA204600F059FE0020A6
:10C9500005B030BDDB0FC94010B54B88702B0446C5
:10C960007CD029D8142B72D010D8112B0CD045D9DB
:10C97000122B00F08880132B58D100F54753203339
:10C980001B79DB0700F18380002010BD522B56D0AD
:10C990003AD95C2B70D05D2B48D158F00BFD42F694
:10C9A000300342F62C02E358A158C01A8842EBD952
:10C9B0000023A350012010BDC92B2BD8C82B2FD288
:10C9C000732B40D02ED8722B30D100F54750203039
:10C9D00051F034F842F67853E35823EAE37307EE54
:10C9E000903AF8EEE77AB4EEE70AF1EE10FACBD51A
:10C9F00042F678530022E250012010BD102B15D1D1
:10CA0000BDE81040FFF752BD152B0FD1BDE8104017
:10CA1000FFF786BDCD2B09D3CE2B01D9DE2B05D157
:10CA2000012010BDA3F1B202012AF9D904F50E507C
:10CA30003830254A042133F043FF012010BDBDE802
:10CA40001040FFF79BBDBDE81040FFF7C9BD00F5E2
:10CA5000475494F8240000F0010010BD58F0AAFCDF
:10CA600042F67C5242F67853A258E358801A23EAE1
:10CA7000E373984288D9BBE78B88002BD0D0BDE800
:10CA8000104001F061BEBDE81040FFF729BF42F63B
:10CA90002803C3588BB158F08DFC42F6280342F6A8
:10CAA0002602E3580949A25AC31AA1FB0313B2EBA9
:10CAB000931F94BF0120002010BD58F07BFC42F66C
:10CAC0002803E050E7E700BF58C80E08D34D6210B6
:10CAD00070B542F2B442825C032A02D00025284697
:10CAE00070BD0E460446FFF737FF05460028F5D017
:10CAF00004F50E503830318838F07CFDEFE700BF88
:10CB000008B500F5455300225A6003F0B9FE012034
:10CB100008BD00BF2DE9F0472DED068B0AEE101A77
:10CB200009EE902AF8EECA8AB8EEE99A28EEA80A29
:10CB300096B0A9EE090A002204928246B5EE400A98
:10CB4000F1EE10FA01930592F1EEC0AA0692079257
:10CB500008920992259D269C00F1A681DFEDD77AE7
:10CB6000F4EEE7AAF1EE10FA19DD87EEAA8A68EE74
:10CB7000288A28EE098AFDEEE87ACDED027AFDEEEC
:10CB8000C87ABDF90830CDED037A0AEE103ABDF946
:10CB90000C3009EE903AF8EECA8AB8EEE99ADAED6E
:10CBA000246AF5EEC06AF1EE10FA40F23981F7EE30
:10CBB000007A9FEDC26A9AED1F4AF4EEE76AF1EE41
:10CBC00010FAD4BF37EEE67AF0EE676AC9EE065A7D
:10CBD000C8BFCAED247AC8EE867AC8BF9FEDB87A7E
:10CBE00067EEA74A25EEA55A25EE878A67EE878A63
:10CBF00064EEA74A65EE255AB0EE487AE4EEA68ABE
:10CC0000A5EEA67A68EE868A27EE068A68EE848A02
:10CC100028EE048A9DED017ADAED207A9AF98C30BB
:10CC2000B8EEC79A29EE279A5BB9249BC3ED008A18
:10CC300085ED008A84ED009A16B0BDEC068BBDE848
:10CC4000F0870AF5F95318681DF07EFEFDEEC07AF4
:10CC500040F6B8329B4917EE900A17EE906A1DF025
:10CC600001FF404207EE900A9AED217AF8EEE77A4A
:10CC700041F6247367EE877A5AF80300CDED047A03
:10CC80001DF062FEFDEEC07A40F6B83217EE900A53
:10CC90008C4917EE907A1DF0E5FE404207EE900AAF
:10CCA000DAED226A9AF98C30F8EEE77A002267EE24
:10CCB000A67A022B0692CDED057A00F0B8800AF52F
:10CCC000395606F15C009FED800A20F0A1FC16ABFE
:10CCD0008DED130ACDED140A8DED151A13E9070039
:10CCE00010AB83E807000AAB83E807009FED770AE3
:10CCF000184620F08DFC203607AB304604AA0DA95B
:10CD0000CDED0E0A8DED0F1A8DED0D0A4DF008FADE
:10CD10009AF98C30022B00F0A7801AEE100AFBF76C
:10CD200029FC064619EE900A21F00047FBF722FC89
:10CD300021F0004932463B4649468046FBF7F2FE69
:10CD400008B1B046B9460198FBF714FC21F0004742
:10CD5000394642464B460646FBF7E4FE08B14646D6
:10CD60004F4654A3D3E9002330463946FBF792FDE2
:10CD700002460B4600205649FBF7AEFAFBF758FF78
:10CD8000B7EE001ADFED4E0A00EE100A1DF07AFE33
:10CD90000AF5015ADAED0E7A07A820EE270A20F0EC
:10CDA00037FCF0EEE87AF0EEC06A77EEE67AB0EEA5
:10CDB000407AF0EEE77ACDED080A8DED091AF1EE32
:10CDC000670AB0EE671A38EE800A8DED077A1DF01B
:10CDD00059FEF0EE408A9DED080AB0EEC81AF0EE5A
:10CDE000C07A31EE671A30EE080AB0EEC11AF1EEE1
:10CDF000410A1DF047FEB0EE408A9DED090AB0EEF3
:10CE0000C91AF0EEC07A31EE671A39EE000AB0EEB8
:10CE1000C11AF1EE410A1DF035FEB0EE409A04E76A
:10CE20009AED1F8A68EE288A28EE098AF2E6BAF996
:10CE300004309E4233DDF61A07EE106A9DED046A57
:10CE4000DAED215AB8EEC77AA5EEC76A8DED046A0D
:10CE50009F4216DDFF1A07EE107AB8EEC77AE6EEAB
:10CE6000C77ACDED057A2AE7DDED076A9DED087AF0
:10CE7000DDED097A78EEA68A38EE078A39EE279A30
:10CE8000D3E65A429742BFF61AAF1F4407EE107A14
:10CE9000B8EEC77AE6EEC77ACDED057A0FE75A42CB
:10CEA0009642D5DA1E44C7E7D5F0A4FC56E600BF8B
:10CEB000AFF30080000000000094B14000A08C455A
:10CEC0000000000048F4FFFF9F0CB345D302373940
:10CED0000000F03FF0B542F25D530446C35CDB074F
:10CEE00089B000F515503FD51830022154F04EFBA3
:10CEF000D4F8AC38D4F8A428D4F8A018B2F9082093
:10CF0000B3F90830B1F9081005A807AF06AE04F56B
:10CF100039558DE8C10020352046FFF7FBFD9DED1A
:10CF2000071ADDED060A9DED050A28464EF0DAF8EF
:10CF3000D4F8A8083CF0FCF8D4ED040A00212846F7
:10CF40004CF010FBD4F8B0083CF0F2F804F516539E
:10CF500083ED000AD4F8B4083CF0EAF804F516545E
:10CF600084ED010A09B0F0BD04F5395520351830BB
:10CF7000012154F00BFB2846D4ED040A9FED040A6E
:10CF800001214CF0EFFA28464DF06CF909B0F0BDE4
:10CF90000000000070B50446FCF748FE054608B9DD
:10CFA000284670BD2046FDF76BF8B4F92C3040429E
:10CFB00007EE900A00EE903A04F540563836B8EE87
:10CFC000E70AF8EEE00A30464EF0E6FBB4F93030FE
:10CFD00000EE103A3046B8EEC00A4EF007FC30467C
:10CFE0004EF0FEFC42F2B64342F63052E35C0121C1
:10CFF000A1549BB104F5515343F2444100221A60FD
:10D00000625041F6287243F24843A258E25058F069
:10D01000D1F943F23C43E050284670BD04F5F95382
:10D0200004F551521B68136041F6247243F24443E5
:10D03000A258E250E5E700BFF0B52DED028B89B0B4
:10D04000044658F0B7F9064604F515500221183089
:10D0500054F09CFA844943F2084341F28732CB589A
:10D06000F31A934240F28680D4F8A028D4F8A4386A
:10D07000B2F90820B3F9083004F53955203508EE27
:10D08000903A08EE102A28464DF04CF9B8EEC88ABE
:10D09000F8EEE88AB0EE401AF0EE680AB0EE480A00
:10D0A00002AA01A92046FCF7A1FED4F8AC3820461C
:10D0B000B3F90810FCF706FFB0EE401A9DED010A27
:10D0C000DFED6A7A8DED031AB0EEC07AB4EEE77A3E
:10D0D000F1EE10FADDED020A1BDD04F5F95204F55C
:10D0E000515312681A6041F6247741F6287143F2D1
:10D0F000484243F23C4343F24440E75961582750C9
:10D10000A1502846E6504DF0EDFF09B0BDEC028B72
:10D11000F0BDB0EEE07AB4EEE77AF1EE10FADCDCC6
:10D12000B0EEC17AB4EEE77AF1EE10FA00F388803F
:10D1300043F23C43E358FA339E426ED343F24841F4
:10D1400043F244426158A25804F5515300EE902A2C
:10D1500093ED000A01EE101A2846B8EEC11AF8EE57
:10D16000E00AB8EEC00A01214DF0ACFE09B0BDECFA
:10D17000028BF0BD04F55050014610304F69006835
:10D180008E69CD69049003AB02AA01A904A8059792
:10D19000069607951FF074FADFED355ADDED016A4A
:10D1A0009DED027ADDED037A9FED326A66EEA56AA7
:10D1B00027EE257A66EE866A67EEA57A27EE067A6E
:10D1C00067EE867ABDEEE66A43F2484316EE107AC1
:10D1D000BDEEC76A04F5515616EE105ABDEEE76A69
:10D1E00043F2444116EE102A04F539503760B0EE90
:10D1F000660A6550F0EE470AB0EE671AE25020303A
:10D200000121CDED016A8DED027ACDED037A4DF06D
:10D2100059FE09B0BDEC028BF0BD41F628729FEDBE
:10D22000161AA25843F248432846E250F0EE410A4B
:10D23000B0EE410A4DF056FF09B0BDEC028BF0BDD7
:10D24000DFED0D0A2846B0EE600A4DF04BFF41F6C7
:10D25000287143F248426158A15043F23C43E650E2
:10D2600009B0BDEC028BF0BD9029022000004842BD
:10D27000E02E65420000C84200000000F0B52DED30
:10D28000048B42F25D530446C35C13F0010591B078
:10D2900000F5155000F099800221183004F5405730
:10D2A00054F074F93837204604F5F855FFF7C4FEFA
:10D2B000103538464FF022F8284607F0D7FF04F51E
:10D2C0001556014607A81EF04BF896ED0F0AB6EE6C
:10D2D000008A30EE480AB7EE001AFFEE000A30EE80
:10D2E000000A1DF0CFFB04A9002307A804930593AF
:10D2F0008DED060A1DF064FFD4F8A808CDED020AF2
:10D3000071EE088A8DED010A3BF012FF38EE800ABB
:10D3100030EE480A86ED0F0AD4F8B0083BF008FF5B
:10D32000DDED017A30EE670A04F5165383ED000A4D
:10D33000D4F8B4083BF0FCFEDDED027A30EE670A6B
:10D3400004F5165383ED010A284607F08FFF0546C2
:10D35000D4F8B0083BF0ECFED4F8B408B0EE409A34
:10D360003BF0E6FED4F8A808F0EE408A3BF0E0FE81
:10D3700030EE480A07A930EE000A28468DED090A6A
:10D380008DED079ACDED088A1DF01AFFDFED3E7A8C
:10D390008DED061AB0EEC11AB4EEE71AF1EE10FAEE
:10D3A000CDED050A8DED040A39DC42F2B043E35CB1
:10D3B0001A0645D45B0655D442F63055635D002B02
:10D3C00038D011B0BDEC048BF0BD04F539562036D1
:10D3D0001830012154F0DAF8D4ED040A0121B6EE38
:10D3E000000A30464CF0BEF830464CF03BFF04F5E6
:10D3F000405038304CF0E4FA04F5515341F62870AF
:10D400001D60205843F2484143F2444242F63053F3
:10D410006050A550E55411B0BDEC048BF0BD42F650
:10D42000305300223846E2544CF0CAFA11B0BDEC39
:10D43000048BF0BD38464EF0D3FA01236355C0E7A4
:10D44000D4ED257AB1EE047A77EEC77A42F63052FF
:10D4500004F545530121C3ED017AA15411B0BDEC8F
:10D46000048BF0BD04F53650043052F05FF8F2EE54
:10D47000047A30EE270A42F6305204F54553012172
:10D4800083ED010AA1549CE7CDCC4C3D38B5044650
:10D4900005F00EFA0546D0B142F29A23E35A012B69
:10D4A0001AD942F6545342F61C01E25C0520022AC6
:10D4B00060540ED004F54750203050F051FB204608
:10D4C00001F048F804F50A50183021F089FE28468A
:10D4D00038BD0022E254EDE70025284638BD00BFE4
:10D4E00010B542F61C030446002200F54750E254F2
:10D4F000203051F009FD00B342F65453E25C022A99
:10D500001AD094F82930042B9ABF1549CB5C01231B
:10D510009A4211D042F65452022BA35413D0042B3A
:10D5200010D141F6287204F53553A25807EE902A1F
:10D53000F8EEE77AC3ED0D7A10BD2046BDE8104045
:10D5400002F0BEBD10BD41F6287204F53553A25855
:10D5500007EE902AF8EEE77AC3ED097A10BD00BF16
:10D5600074C80E08F0B5044685B042F61C000325C9
:10D5700025540A980D4616461F460FC88DE80F0021
:10D5800004F547503B4632462946203051F0D2FC44
:10D5900008B342F65453E25C022A1AD094F82930B8
:10D5A000042B9ABF1549CB5C01239A4211D042F655
:10D5B0005452022BA35414D0042B0AD141F62872E2
:10D5C00004F53553A25807EE902AF8EEE77AC3ED3A
:10D5D0000D7A05B0F0BD204605B0BDE8F04002F080
:10D5E0006FBD41F6287204F53553A25807EE902A14
:10D5F000F8EEE77AC3ED097A05B0F0BD74C80E08FD
:10D6000042F61C0200F54C530221815403F128011B
:10D61000103318464FF004BF10B542F61C03042225
:10D620000446C254012100F0DFFF2046BDE810404F
:10D6300001F076B890F92930042B0DD8DFE803F01B
:10D64000030C0907050000207047062070470420DE
:10D65000704781F0010070470120704742F6545333
:10D66000C25C8A420FD00229C1540ED004290BD1CA
:10D6700041F6287200F53553825807EE902AF8EEED
:10D68000E77AC3ED0D7A7047704741F6287200F5CE
:10D690003553825807EE902AF8EEE77AC3ED097AFF
:10D6A000704700BF70B52DED048B044600F53A506D
:10D6B00084B0B0EE408A1C309FED2A0AF0EE608AFA
:10D6C0000E4615461FF0A4FFBDEEC19A55B3002EBD
:10D6D000B8EEC90ADFED247AB8BFB1EE488AA8EEE9
:10D6E000270A1DF085F9DFED217ABDEEC00AB0EE04
:10D6F000E87A42F66C5310EE102AB4EEE77AF1EEB7
:10D7000010FAE25013D542F670533C22E25242F630
:10D710005453E25C032A1CBF0322E25404B0BDEC64
:10D72000048B70BD9FED100A28EE000AD9E742F67F
:10D730006C53E05819EE103AC01A1DF005F9DFEDF0
:10D740000A7A80EE270A4FF4B4720121C0EE287ADB
:10D75000FDEEE77A17EE900A1DF084F942F6705359
:10D76000E052D4E79F0CB3450000C84200000034EB
:10D7700070B54B680E4605460BB98B6873B105F55D
:10D780004D5424342046A1793DF06AFA28B332463C
:10D79000A1792046BDE870403DF002BBCB68002B6C
:10D7A000EDD190F82930042B9CBF2E4AD35C42F671
:10D7B000545288BF0123815C994204D0022B8354C8
:10D7C0003DD0042B2FD005F54D5524352846A97999
:10D7D0003DF050FA04283ED070BD3146284604F092
:10D7E000C9FA05F5355342F6545283ED060AC3EDE6
:10D7F000070A83ED081AAB5C022BC8D041F62871EA
:10D8000005F53553695807EE901A0221F8EEE77ACC
:10D81000A9542433C3ED007A3246A1792046BDE8ED
:10D8200070403DF0BDBA41F6287200F5355382587C
:10D8300007EE902AF8EEE77AC3ED0D7AC3E741F6DA
:10D84000287200F53553825807EE902AF8EEE77AF1
:10D85000C3ED097AB7E7A9792846BDE870403DF0E5
:10D860000FBA00BF74C80E0842F65453C35C023BA3
:10D87000042B4DD8DFE803F0383A4244030010B5DA
:10D88000044600F547502DED028B00F1640158303D
:10D890001DF048FA04F540503830B0EE408A4EF0A2
:10D8A000B7FA07EE900AB8EEE70A30EE480A1DF024
:10D8B00097F894F92830DFED197A5A4200EE902A51
:10D8C00007EE103AF8EEE00AB8EEC71A60EEA70AC3
:10D8D00021EE271A1DF0D6F838EE000ABDEC028BB7
:10D8E000BDE810401DF084B8FCF7F2BB42F66C5363
:10D8F000C35800EE103AB8EEC00A7047FCF70ABCF5
:10D9000042F62003C35800EE103AB8EEC00A704742
:10D9100000F54750203050F071BA00BF0000C842F7
:10D9200030B52DED028B42F25D5385B0C35CDA0752
:10D93000044658D542F25053C35CDB074AD59FEDED
:10D94000368A04F515500221183053F01FFE04F5F5
:10D950004750203051F02AF80146204602F0DCF909
:10D9600001AA6946204603F0A1FF04F51653019968
:10D97000009D5D6004F54050196038304EF0BEFCEB
:10D98000D4F8A038D4F8A428B3F90830B2F90820A4
:10D9900000EE103AB4F9043000EE902A01EE103A8D
:10D9A00003AA02A92046F8EEE00AB8EEC00AB8EED3
:10D9B000C11AFCF71BFA04F53950B0EE481A2030B2
:10D9C000DDED030A9DED020A4DF09AF905B0BDECBC
:10D9D000028B30BDD0F8AC38B3F90810FCF772FAFE
:10D9E000B0EE408AADE704F5395500F51550203505
:10D9F0001830012153F0CAFD2846D4ED040A9FEDEA
:10DA0000060A01214BF0AEFD28464CF02BFC05B078
:10DA1000BDEC028B30BD00BF0000000030B52DED25
:10DA2000028B42F25D5385B0C35CDB07044640F1D4
:10DA3000848042F25053C35C13F0010565D09FED22
:10DA40004B8A04F515500221183053F09FFD04F560
:10DA50004750203050F0AAFF0146204602F05CF902
:10DA600001AA6946204603F021FF04F516520199E8
:10DA7000009D116004F54050556038304EF03EFC7A
:10DA8000D4F8A038D4F8A428B3F90830B2F90820A3
:10DA900000EE103AB4F9043000EE902A01EE103A8C
:10DAA000F8EEE00AB8EEC00AB8EEC11A03AA02A95D
:10DAB0002046FCF79BF942F65453E35CB3B1204691
:10DAC0009DED028ADDED038AFFF7CEFE04F53950A5
:10DAD000B0EE401AF0EE680AB0EE480A203001219C
