:020000040800F2
:1000000000040020E1010008E3010008E30100080A
:10001000E3010008E3010008E3010008E301000830
:10002000E3010008E3010008E30100081D270008C0
:10003000E3010008E3010008E3010008E301000810
:10004000E3010008E3010008E3010008E301000800
:10005000E3010008E301000885380008B138000812
:10006000DD3800080939000835390008E3010008C7
:10007000E3010008E3010008E3010008E3010008D0
:10008000E3010008E3010008E3010008E3010008C0
:10009000E3010008E3010008E301000861390008FA
:1000A000E3010008E3010008E3010008E3010008A0
:1000B000E3010008E3010008E3010008E301000890
:1000C000E3010008E3010008E3010008E301000880
:1000D000E3010008E3010008811000089510000802
:1000E000C9390008E3010008E3010008E301000842
:1000F000E3010008E3010008E3010008E301000850
:10010000E3010008E301000895360008E301000858
:10011000E3010008E3010008E3010008E30100082F
:10012000E3010008E3010008E3010008E30100081F
:10013000E3010008E3010008E3010008E30100080F
:10014000E3010008E3010008E3010008092E0008AC
:10015000E3010008E3010008E3010008E3010008EF
:10016000E3010008E3010008E3010008E3010008DF
:10017000E3010008E3010008E3010008E3010008CF
:10018000E3010008E3010008A9100008E3010008EA
:10019000E3010008E3010008E3010008E3010008AF
:1001A000E3010008E3010008E3010008E30100089F
:1001B000E3010008E3010008E3010008E30100088F
:1001C000E3010008E3010008E3010008E30100087F
:1001D000E3010008E3010008E3010008E30100086F
:1001E00002E000F000F8FEE772B6394880F30888B4
:1001F000384880F3098838484EF60851CEF200019D
:10020000086040F20000CCF200004EF63471CEF2ED
:1002100000010860BFF34F8FBFF36F8F40F2000003
:10022000C0F2F0004EF68851CEF200010860BFF334
:100230004F8FBFF36F8F4FF00000E1EE100A4EF6C4
:100240003C71CEF200010860062080F31488BFF3F1
:100250006F8F02F0A1FA03F0B3F94FF055301F4948
:100260001B4A91423CBF41F8040BFAE71C49194A6A
:1002700091423CBF41F8040BFAE71A491A4A1B4B5A
:100280009A423EBF51F8040B42F8040BF8E70020F5
:100290001749184A91423CBF41F8040BFAE702F0B3
:1002A0007FFA03F0E9F9144C144DAC4203DA54F828
:1002B000041B8847F9E700F03FF8114C114DAC42A0
:1002C00003DA54F8041B8847F9E702F067BA000024
:1002D000000400200024002000000008000000208E
:1002E00000040020883E000800240020282400206C
:1002F00028240020B8410020E0010008E0010008A7
:10030000E0010008E00100082DE9F04F2DED108A12
:10031000C1F80CD0C3689D46BDEC108ABDE8F08FD3
:10032000002383F311882846A047002001F09AFE9D
:1003300001F04AFE00DFFEE770B5204C09230025DE
:1003400023706FF03F061F236570A570E57025715F
:100350006571A571E57125726672A372E57200F090
:100360000DFD20B10F2325726672A372E57202F0B3
:10037000ABF9044602F0CCF90546D8B9104B9C42C3
:100380001AD001339C4218BF054641F2883404BF9D
:1003900001250024002002F09DF90DB100F0B6F80F
:1003A00000F070FD00F028FC204600F00DF900F090
:1003B000ADF8F9E70024EDE70446EBE72824002038
:1003C000010007B008B500F095FBA0F120035842EA
:1003D000584108BD07B5054B02211B88ADF8043014
:1003E00001A800F0F3FB03B05DF804FBC83A000875
:1003F000064991F8243033B100230822086A81F8B5
:10040000243000F01BBC0120704700BF48240020AE
:100410002DE9F84F234C94F82430054688461746BA
:100420008BBB2E46DFF87C90002F38D094F824A0A8
:10043000BAF1000F05D12022FF214846266200F0C4
:100440000FFDCAF10805BD4228BF3D465FFA85FB96
:10045000AD0041462A4604EB8A0000F0D7FC94F830
:100460002430A7EB0B079B445FFA8BFBBBF1080F13
:100470002E44A844FFB284F824B0D5D1FFF7B8FFCA
:100480000028D1D108E0266A06EB8306B042C9D025
:10049000FFF7AEFF0028C4D10020BDE8F88F01208F
:1004A000BDE8F88F4824002010B5202383F311887D
:1004B0001248C3680BB101F05BFE0023104A0F48DD
:1004C0004FF47A7101F018FE002383F311880D4C6C
:1004D000236813B12368013B2360636813B1636829
:1004E000013B6360084B1B7833B9636823B9022072
:1004F00000F082FC3223636010BD00BF3424002072
:10050000A9040008782900207024002010B5254B8C
:10051000254953F8042F013200D110BD8B42F8D188
:10052000224C234B22689A423AD9224B9B6803F112
:10053000006303F580439A4232D2002000F076FB3C
:100540001D4B0220187000F04DFC1C4B1A6C002251
:100550001A64196E1A66196E596C5A64596E5A6685
:100560005A6E5A6942F080025A615A6922F080023A
:100570005A615A691A6942F000521A611A6922F0E6
:1005800000521A611B6972B60D4A0E4B13601B684C
:100590002268202181F311889D4683F30888104743
:1005A00010BD00BFFC3F00081C40000804400008CC
:1005B000FF3F00082824002070240020003802405B
:1005C00008ED00E0004000082DE9F04FB04C97B076
:1005D00020228146FF210EA8A66800F041FCAD4A0A
:1005E0001378A346A3B9AC480121C360117020233E
:1005F00083F31188C3680BB101F0BAFD0023A74A49
:10060000A5484FF47A7101F077FD002383F3118838
:10061000B9F1000F02D0A24BC3F80090A14BA04A41
:1006200000241C705460254627469846012000F09F
:10063000D9FBB9F1000F00F02282994B1B68002B07
:1006400040F01D8217B0BDE8F08F0220FFF7BAFE20
:10065000002840F00E82944B1B88ADF82430022114
:1006600009A800F0B3FAE1E74FF47A7000F042FA1B
:10067000031E0193EFDB0220FFF7A4FE8246002851
:10068000E9D0019B581E042800F2F581DFE800F054
:10069000030D1013160016A8052340F8343D04215D
:1006A00000F094FA5446002752E004217848F7E716
:1006B00004217E48F4E704217D48F1E71C2420460C
:1006C00000F0B6FA04340990042109A800F07EFA7B
:1006D0002C2CF4D1E6E7002DBDD0002CBBD002209D
:1006E000FFF770FE0546002800F0C781012000F0EA
:1006F0009DFA022088F8000000F074FB0024E3B2A9
:100700001846019300F0A2FA824648B1019B1846B0
:1007100000F0ACFA01340028F1D12C46654B9BE780
:100720000123022088F8003000F052FB5646DBF827
:1007300008309E4206D2304600F07AFA0130ECD101
:100740000436F4E7564B002688F800605E602C46BD
:1007500000F08EFB1DB1002C18BF4FF00009FFF711
:1007600039FE63E7002D3FF476AF002C3FF473AF02
:10077000022088F8000000F035FB322000F0BAF9C2
:10078000B0F1000AC0F279811AF0030540F07581DA
:10079000DBF8082006EB0A03934200F26E81BAF5FB
:1007A000807F00F26A81444B019355450DDA4FF486
:1007B0007A7000F09FF90290029A002AC0F25D81DF
:1007C000019B029AEA540135EEE7C820FFF7FAFDD3
:1007D0000546002800F051811F2E11D8C6F12004D3
:1007E000544528BF54460EAB26F00300224632493A
:1007F000184400F00BFB2246FF212F4800F030FB8D
:100800004FEAAA0A5FFA8AF22B493046FFF700FE48
:100810000446002881D006EB8A06054698E70220A8
:10082000FFF7D0FD00283FF416AFFFF7E1FD0028E9
:100830003FF411AF00229246DBF808309A4259D2B9
:100840001F2A1ED80E9B01331BD022F0030316A9CA
:100850000B4453F8203C09931848436883B3174866
:1008600000210DF1240E11F80E3083EA0A03DBB2E9
:10087000013150F82330042983EA1A2AF3D10432D3
:10088000DAE71046019200F0D3F9019A0990E3E704
:10089000282400207425002034240020A904000806
:1008A0007829002070240020CA3A00082C24002057
:1008B00030240020CC3A0008742400207825002041
:1008C00019464FF0080E11F0010F4FEA51011FBFFA
:1008D00081F06D4181F4380181F4034181F0200100
:1008E000BEF1010EEFD140F823100133B3F5807F44
:1008F000E6D1B4E716A8042140F84CAD00F066F943
:1009000026E716A8002340F8343D642100F02AF9B8
:1009100000287FF4A0AE0220FFF754FD00283FF42A
:100920009AAE099800F0B4F916AB43F8480D0421CB
:100930001846E3E716A8002340F8343D642100F090
:1009400011F900287FF487AE0220FFF73BFD002855
:100950003FF481AE099800F0A9F916AB43F8440DB5
:10096000E5E70220FFF72EFD00283FF474AE00F00B
:10097000A3F916AB43F8400DD9E70220FFF722FD9B
:1009800000283FF468AE09A9142000F09BF98246C4
:1009900016A8042140F83CAD00F018F9514609A80A
:1009A000ACE7322000F0A6F8B0F1000AFFF653AE33
:1009B0001AF0030F7FF44FAEDBF808200AEB0703B1
:1009C00093423FF648AE0220FFF7FCFC00283FF4BC
:1009D00042AE2AF0030ABA44BA453FF4B9AE3846EB
:1009E00000F026F90421089008A800F0EFF8043779
:1009F000F2E74FF47A70FFF7E5FC00283FF42BAEE6
:100A0000FFF7F6FC00283FF489AE0E9B01330CD0B3
:100A100008220EA90020FFF7FBFC00283FF47EAE61
:100A20002022FF210EA800F01BFAFFF7D3FC30486C
:100A300001F01EFB06E616A8002340F8343D6421B1
:100A400000F090F8824600287FF405AE0220FFF700
:100A5000B9FC00283FF4FFADFFF7BCFC41F2883041
:100A600001F006FB099800F047FAD14600F000FAC1
:100A7000DCE505466CE60027EDE52546EBE50020C4
:100A800000F038F80290029B002BFFF6D2AD012057
:100A900000F09EF9029B213B122B3FF6C7AD01A24D
:100AA00052F823F04B06000869060008D706000834
:100AB0002D0600082D0600082D0600086507000811
:100AC000A30900081F0800080309000835090008E9
:100AD000630900082D0600087B0900082D060008A0
:100AE000F3090008510700082D060008370A00081E
:100AF000A08601002DE9F34702AE00244FF47A7579
:100B000006F8014D144FDFF85880454397F900303F
:100B10005A1C5FFA84F901D0A34212D158F824007C
:100B200003680122D3F820A031462B46D047012884
:100B300007D10A4B9DF8070083F8009002B0BDE88A
:100B4000F0870134042CE1D14FF4FA7001F090FAEF
:100B50004FF0FF30F2E700BF00240020982900206A
:100B6000203B00082DE9F0474FF47A75144FDFF869
:100B7000588006464D43002497F900305A1C5FFA0E
:100B800084F901D0A34210D158F82400036804224C
:100B9000D3F820A031462B46D047042805D1094B75
:100BA00083F800900020BDE8F0870134042CE3D1E5
:100BB0004FF4FA7001F05CFA4FF0FF30BDE8F087B7
:100BC0000024002098290020203B000830B4074B67
:100BD0001A78074B53F822402368DD69054B0A4613
:100BE000AC460146204630BC604700BF9829002033
:100BF000203B0008A086010070B501F07DFC094C87
:100C0000094E2070002530682378834208D901F00E
:100C10006DFC336805440133B5F5804F3360F2D382
:100C200070BD00BF992900208029002001F016BD69
:100C300000F1006000F580400068704700F100603E
:100C4000920000F5804001F0A1BC0000054B1A683D
:100C5000054B1B789B1A834202D9104401F046BC15
:100C600000207047802900209929002038B5074DC1
:100C700004462868204401F041FC28B92868204433
:100C8000BDE8384001F052BC38BD00BF80290020CB
:100C900010F0030308D1B0F5007F05D800F1005033
:100CA000A0F508400068704700207047014BC0580D
:100CB000704700BF107AFF1F014B1868704700BFD4
:100CC000002004E070B52A4B1C68C4F30B03240C0D
:100CD00063B140F21342934231D040F21942934241
:100CE0002FD040F2214293422DD10323214A0C25DB
:100CF00005FB03235D6893F9082042F201039C423F
:100D000024D0B4F5805F23D041F201039C4221D06E
:100D100041F203039C421FD041F207039C4208BFEB
:100D20003122441E0C44013D0B46A3421ED215F94C
:100D3000016F581C96B1034600F8016CF5E70123DA
:100D4000D4E70223D2E73F220B4DD6E73322E3E775
:100D50004122E1E75A22E4E75922E2E72C258442C6
:100D60001D7001D9981C5A70401A70BD1846FBE7D7
:100D7000002004E0F03A0008D03A0008124B5A88EC
:100D800042F201018A4293B214D0B3F5805F13D0CE
:100D900041F20102934211D041F2030293420FD07B
:100DA00041F2070293420DD10423084A02EB830368
:100DB000D87870470023F8E70123F6E70223F4E729
:100DC0000323F2E700207047002004E0DC3A00082B
:100DD000022802BF024B4FF480529A61704700BF55
:100DE00000100240022802BF024B4FF080529A616D
:100DF000704700BF00100240022801BF024A536939
:100E000083F48053536170470010024010B50023F3
:100E1000934203D0CC5CC4540133F9E710BD000009
:100E200030B5441E14F9010F0B4660B193F9005020
:100E3000854201F1010106D11AB993F90020801A07
:100E400030BD013AEEE7002AF7D1104630BD000070
:100E500002460346981A13F9011B0029FAD170477C
:100E600002440346934202D003F8011BFAE770479D
:100E7000024B1A78024B1A70704700BF9829002065
:100E800000240020F8B5164C1648174D174E154F84
:100E900000F036FC2146134800F05EFC236814483D
:100EA0005A6D936B23F40023936301F0E1F82068FB
:100EB000104900F05DFD23685A6D936B43F40023E5
:100EC00093634FF4E1332B60002456F82400B842BA
:100ED00002D0294600F072FB0134042CF5D1F8BD94
:100EE000083C00081437002084290020203B00081B
:100EF00040420F00543C000838B50B4B1A780B4B9E
:100F000053F822400A4B9C4205460CD0094B002165
:100F100018461422FFF7A4FF056001462046BDE8ED
:100F2000384000F04BBB38BD98290020203B00081A
:100F300014370020842900200268436811430160AF
:100F400003B1184770470000024AD36843F0C0035A
:100F5000D360704700440040024AD36843F0C003A6
:100F6000D360704700480040024AD36843F0C00392
:100F7000D3607047007800402DE9F041D0F85C6400
:100F8000F7683368DA0505469CB20DD5202383F354
:100F900011884FF400710430FFF7CEFF6FF48073B7
:100FA0003360002383F31188202383F3118805F134
:100FB000040814F02F0333D183F31188380615D5B4
:100FC000210613D5202383F3118805F1380000F0A2
:100FD00053FA002846DA0821281DFFF7ADFF4FF627
:100FE0007F733B40F360002383F311887A060ED5AC
:100FF00063060CD5202383F31188EA6C2B6D9A428B
:1010000002D12B6C002B2FD1002383F31188D5F84C
:101010006424D368002B31D01069BDE8F041184733
:10102000230713D014F0080F0CBF00218021E00724
:1010300048BF41F02001A20748BF41F040016307CB
:1010400048BF41F480714046FFF776FFA4067368FD
:1010500005D595F860142846194000F0BDFA3468AB
:10106000A4B2A6E77060BEE727F040073F04102156
:10107000281D3F0CFFF760FFF760C5E7BDE8F08172
:1010800008B50348FFF778FFBDE8084001F056BBFC
:101090009C29002008B50348FFF76EFFBDE8084013
:1010A00001F04CBB042E002008B50348FFF764FF95
:1010B000BDE8084001F042BB6C32002010B50E4C78
:1010C0000E4A2046002100F057FA0D4BC4F85C345C
:1010D0000C4C0D4A2046002100F04EFA0B4BC4F890
:1010E0005C340B4C0B4A0021204600F045FA0A4BB9
:1010F000C4F85C3410BD00BF9C290020490F0008D3
:1011000000440040042E0020590F00080048004011
:101110006C320020690F00080078004038B5394D66
:10112000037C002918BF0D46012B0446C0F8645407
:1011300010D1354B984242D1344B1A6C42F40032F4
:101140001A641A6E42F400321A661B6E0B212620B6
:1011500000F06AF82E4BD4F85C249A422B6802D037
:101160002C498A424BD12C4901EB5301B1FBF3F3DB
:10117000A988080442BF23F0070003F0070343EAED
:1011800040039360EB8843F040039BB213612B89CB
:1011900043F001039BB2536141F4045343F02C0329
:1011A000D36001F4A05100231360B1F5806F136880
:1011B00053680CBF7F23FF2384F8603438BD174B7E
:1011C00098420CD1114B1A6C42F480221A641A6EA8
:1011D00042F480221A661B6E0B212720B8E7104BC1
:1011E0009842B7D1094B1A6C42F080421A641A6EC9
:1011F00042F080421A661B6E0B215220A8E7094973
:10120000B2E700BF503B00089C2900200038024094
:10121000001001400014014000BD0105042E002013
:101220006C32002080DE800200F1604300F01F027B
:10123000400903F5614309018000C9B200F1604033
:1012400083F8001300F5614001239340C0F880311A
:1012500003607047F8B5154682680669AA420B46D6
:10126000816938BF8568761AB542044607D21846A8
:101270002A46FFF7CBFDA3692B44A3610DE011D9EA
:1012800032461846FFF7C2FDAF1B3A46E1683044CC
:10129000FFF7BCFDE2683A44A261A3685B1BA36050
:1012A0002846F8BD18462A46FFF7B0FDE368E4E794
:1012B00083682DE9F041044693421546266938BFFC
:1012C00085684069361AB5420F4606D22A46FFF7AE
:1012D0009DFD63692B4463610DE012D93246A5EB95
:1012E0000608FFF793FD4246B919E068FFF78EFD47
:1012F000E26842446261A3685B1BA3602846BDE8C4
:10130000F0812A46FFF782FDE368E4E710B50A445E
:101310000024C361029B006040608460C160816101
:1013200041610261036210BD08B58269436993425D
:1013300001D1826882B98268013282605A1C42619E
:101340001970426903699A4201D3C368436100215D
:1013500000F0AAFE002008BD4FF0FF3008BD0000DD
:1013600070B5202304460E4683F31188A568A5B105
:10137000A368A269013BA360531CA361157822698D
:10138000934224BFE368A361E3690BB12046984709
:10139000002383F31188284670BD3146204600F0B3
:1013A00073FE0028E2DA85F3118870BD2DE9F74F4E
:1013B00005460F4690469A46D0F81C90202686F3A4
:1013C00011884FF0000B144664B122463946284676
:1013D000FFF740FF034668B95146284600F054FE27
:1013E0000028F1D0002383F31188A8EB040003B098
:1013F000BDE8F08FB9F1000F03D001902846C8472F
:10140000019B8BF31188E41A1F4486F31188DBE7F4
:10141000C16081614161C3611144009B0060406013
:101420008260016103627047F8B504460E461746B4
:10143000202383F31188A568A5B1A368013BA360AD
:1014400063695A1C62611E70236962699A4224BFF3
:10145000E3686361E3690BB120469847002080F39D
:101460001188F8BD3946204600F00EFE0028E2DA69
:1014700085F31188F8BD0000836942699A4210B56E
:1014800001D182687AB98268013282605A1C826115
:101490001C7803699A4201D3C3688361002100F07C
:1014A00003FE204610BD4FF0FF3010BD2DE9F74F71
:1014B00005460F4690469A46D0F81C90202686F3A3
:1014C00011884FF0000B144664B122463946284675
:1014D000FFF7EEFE034668B95146284600F0D4FDFA
:1014E0000028F1D0002383F31188A8EB040003B097
:1014F000BDE8F08FB9F1000F03D001902846C8472E
:10150000019B8BF31188E41A1F4486F31188DBE7F3
:10151000026843681143016003B118477047000037
:101520001430FFF743BF00004FF0FF331430FFF7D4
:101530003DBF00003830FFF7B9BF00004FF0FF3368
:101540003830FFF7B3BF00001430FFF709BF0000C9
:101550004FF0FF311430FFF703BF00003830FFF7C2
:1015600063BF00004FF0FF323830FFF75DBF00006F
:1015700000207047FFF7A2BD37B50F4B0360002373
:1015800043608360C36001230446037415460090E2
:101590000B464FF4007200F15C011430FFF7B6FE09
:1015A00000942B464FF4007204F5177104F13800D3
:1015B000FFF72EFF03B030BD643B000810B52023B9
:1015C000044683F31188FFF7A9FD02232374002347
:1015D00083F3118810BD000038B5C36904460D4679
:1015E0001BB904210844FFF793FF294604F11400B6
:1015F000FFF79AFE002806DA201D4FF48061BDE84F
:101600003840FFF785BF38BD026843681143016069
:1016100003B118477047000013B5446BD4F89434F5
:101620001A681178042915D1217C022912D119795F
:10163000128901238B4013420CD101A904F14C0003
:1016400001F032FED4F89444019B217902462068CF
:1016500000F0DAF902B010BD143001F0B5BD0000A1
:101660004FF0FF33143001F0AFBD00004C3001F0FB
:1016700087BE00004FF0FF334C3001F081BE000008
:10168000143001F083BD00004FF0FF31143001F041
:101690007DBD00004C3001F053BE00004FF0FF3222
:1016A0004C3001F04DBE0000D0F8942438B51368DA
:1016B00019780429054601D0012038BD017C022992
:1016C000FAD112795C89012090400440F4D105F1EF
:1016D000140001F015FD02460028EDD0D5F8945411
:1016E0004FF480732868697900F07CF9204638BD92
:1016F000406BFFF7D9BF0000002070477047000023
:101700007FB5124B0360002343608360C3600125F3
:1017100002260F4B057404460290019300F18402E7
:10172000294600964FF48073143001F0C5FC094B34
:101730000193029400964FF4807304F523722946B6
:1017400004F14C0001F08CFD04B070BD8C3B00082E
:10175000F1160008191600080B68202282F3118880
:101760000A7903EB820290614A79093243F8220038
:101770008A7912B103EB8203986102230374C0F8E3
:101780009414002383F311887047000038B5037F59
:10179000044613B190F85430ABB9201D0125022145
:1017A000FFF732FF04F1140025776FF0010100F01C
:1017B00087FC84F8545004F14C006FF00101BDE83F
:1017C000384000F07DBC38BD10B50121044604301E
:1017D000FFF71AFF0023237784F8543010BD000070
:1017E00038B504460025143001F07EFC04F14C00AD
:1017F000257701F04DFD201D84F854500121FFF79D
:1018000003FF2046BDE83840FFF74EBF90F8443054
:1018100003F06003202B19D190F84520212A0AD02B
:10182000222A4FF000030ED0202A0FD1084A8263EB
:101830000722C26304E0064B83630723C3630023CC
:101840000364012070478363C363F9E70020704796
:1018500001240020D0F8943437B51A68117804298F
:1018600004461AD1017C022917D119791289012362
:101870008B40134211D100F14C05284601F0C8FD00
:1018800058B101A9284601F00FFDD4F89444019BFA
:1018900021790246206800F0B7F803B030BD00009F
:1018A00000EB8103F7B59C6905460E46F4B1202391
:1018B00083F3118805EB8607201D0821FFF7A4FE9E
:1018C000FB685B691B684C3413B1204601F0FAFCDD
:1018D00001A9204601F0E8FC024648B1019B3146CF
:1018E000284600F091F8002383F3118803B0F0BD7F
:1018F000FB685A691268002AF5D01B8A013B134025
:10190000F1D105F14402EAE7093138B550F8214038
:10191000DCB1202383F31188D4F89424136852791E
:1019200003EB8203DB689B695D6845B104216018A5
:10193000FFF76AFE294604F1140001F0EBFB204694
:10194000FFF7B2FE002383F3118838BD7047000013
:1019500000F0ACBF0123037000234360C3618362C6
:101960000362C362436203630381438170470000E3
:1019700038B50446202383F3118800254160C560F3
:1019800005614561856100F0A1FF0223237085F3A5
:10199000118838BD70B500EB810305465069DA60E7
:1019A0000E46144618B110220021FFF759FAA0691B
:1019B00018B110220021FFF753FA31462846BDE83E
:1019C000704001F04DB80000028902F0010202816E
:1019D000428902F001024281002202614261826179
:1019E00001F0D2B8F0B400EB81044789E468012526
:1019F000A4698D403D43458123600023A26063605C
:101A0000F0BC01F0EDB80000F0B400EB81040789F0
:101A1000E468012564698D403D430581236000230E
:101A2000A2606360F0BC01F067B9000070B50223EA
:101A3000002504460370A0F84C5080F84E5080F802
:101A40004F5005814581C56005614561856180F81C
:101A5000345000F0A1FF63681B6823B1294620467B
:101A6000BDE87040184770BD436802781B6880F875
:101A70005020052202700BB1042118477047000066
:101A8000436890F850201B6802700BB1052118477D
:101A90007047000090F8343070B5044613B100234D
:101AA00080F8343004F14402204601F08FF8636876
:101AB0009B6863BB94F8445015F0600615D194F808
:101AC000453005F07F0545EA032540F202339D428B
:101AD00000F00E815BD8022D00F0DC803FD8002D95
:101AE00000F08780012D00F0CF800021204601F01A
:101AF000C5FA0021204601F0B7FA63681B6813B1EC
:101B0000062120469847062384F8343070BD2046CD
:101B100098470028CED094F84B2094F84A3043EAF6
:101B20000223E26B934238BFE36394F94430E56BE0
:101B3000002B4FF0200380F2FD80002D00F0EC80A0
:101B4000092284F8342083F311880021E36BA26B0F
:101B50002046FFF759FF002383F3118870BDB5F5C8
:101B6000817F00F0B180B5F5407F49D0B5F5807F29
:101B7000BBD194F84630012BB7D1B4F84C3023F0E8
:101B80000203A4F84C30A663E6632664C3E740F280
:101B900001639D421ED8B5F5C06F3BD2B5F5A06F6D
:101BA000A3D1B4F84430B3F5A06F0ED194F8463009
:101BB00084F84E30204600F047FF63681B6813B17D
:101BC000012120469847032323700023A363E36386
:101BD0002364A0E7B5F5106F32D040F602439D4272
:101BE00052D0B5F5006F80D104F14F03A3630123F8
:101BF00024E004F14C03A3630223E36325648AE732
:101C000094F84630012B7FF470AFB4F84C3043F0B9
:101C10000203B6E794F84920616894F848304D68AB
:101C200094F8471043EA0223204694F84620A84738
:101C300000283FF45AAF4368A3630368E363A4E753
:101C40002378042B10D1202383F311882046FFF73B
:101C5000BBFE86F31188636884F84F601B6803211C
:101C600021700BB12046984794F84630002BACD039
:101C700084F84F300423237063681B68002BA4D0C2
:101C8000022120469847A0E7374BA3630223E36372
:101C900000239DE794F8481011F0800F204601F0D2
:101CA0000F010ED000F084FF012806D002287FF437
:101CB0001CAF2E4BA363E06367E72D4BA363E56383
:101CC00063E700F067FFEFE794F84630002B7FF4FE
:101CD0000CAF94F8483013F00F013FF476AF1A06BA
:101CE000204602D501F0DEF96FE701F0D1F96CE78B
:101CF00094F84630002B7FF4F8AE94F8483013F097
:101D00000F013FF462AF1B06204602D501F0B6F981
:101D10005BE701F0A9F958E7142284F8342083F333
:101D200011882B462A4629462046FFF75BFE85F39D
:101D3000118870BD5DB1152284F8342083F31188B9
:101D40000021E36BA26B2046FFF74CFE03E70B225A
:101D500084F8342083F311882B462A4629462046EE
:101D6000FFF752FEE3E700BFBC3B0008B43B0008AE
:101D7000B83B000838B590F834300446152B29D804
:101D8000DFE803F03E28282828283E28280B293998
:101D900028282828282828283E3E90F84B1090F81C
:101DA0004A20C36B42EA01229A4214D9C268128ABD
:101DB000B3FBF2F502FB15356DB9202383F31188CF
:101DC0002B462A462946FFF71FFE85F311880A2372
:101DD00084F8343038BD142384F83430202383F35E
:101DE000118800231A4619462046FFF7FBFD002301
:101DF00083F3118838BD036C03B198470023E7E7EC
:101E0000002101F03BF90021204601F02DF9636823
:101E10001B6813B10621204698470623D8E7000027
:101E200090F83420152A38B5044622D8012393406F
:101E300040F6416213421DD113F480150FD19B026D
:101E400017D50B2380F83430202383F311882B46D9
:101E50002A462946FFF7D8FD85F3118838BDC368A7
:101E60009B695B682BB9036C03B19847002384F826
:101E7000343038BD002101F001F90021204601F085
:101E8000F3F863681B6813B10621204698470623C0
:101E9000EDE70000024B00221B605B609A60704718
:101EA000D4360020002303748268054B1B689968B0
:101EB0009142FBD25A6803604260106058607047DC
:101EC000D436002008B5202383F31188037C032B2C
:101ED00005D0042B0DD02BB983F3118808BD4369BD
:101EE00000221A604FF0FF334361FFF7DBFF00234E
:101EF000F2E790E80C001A6002685360F2E7000015
:101F0000002303748268054B1B6899689142FBD8D3
:101F10005A6803604260106058607047D4360020F1
:101F2000054B19690874186802681A6053601861D3
:101F300001230374FEF7E8B9D436002030B54B1CFA
:101F400087B005460A4C10D023690A4A01A800F060
:101F5000D3F82846FFF7E4FF049B13B101A800F073
:101F600007F92369586907B030BDFFF7D9FFF8E7D3
:101F7000D4360020C51E000838B50C4D41612B69D0
:101F800081689A689142044603D8BDE83840FFF75B
:101F900089BF1846FFF786FF01232C610146237491
:101FA0002046BDE83840FEF7AFB900BFD436002068
:101FB000044B1A681B6990689B68984294BF002084
:101FC00001207047D436002010B5084C23682069E2
:101FD0001A6822605460012223611A74FFF790FF8F
:101FE00001462069BDE81040FEF78EB9D4360020C6
:101FF0008260022202740022427470478368A3F157
:102000007C0243F80C2C026943F83C2C426943F8EB
:10201000382C074A43F81C2CC26843F8102C0222C3
:1020200003F8082C002203F8072CA3F118007047CE
:102030002103000810B5202383F31188FFF7DEFF8A
:1020400000210446FFF798FF002383F31188204600
:1020500010BD0000024B1B6958610F20FFF760BFE5
:10206000D4360020202383F31188FFF7F3BF00004C
:1020700008B50146202383F311880820FFF75EFF8F
:10208000002383F3118808BD49B1064B42681B69E0
:1020900018605A60136043600420FFF74FBF4FF091
:1020A000FF307047D43600200368984206D01A6883
:1020B0000260506059611846FFF7F4BE7047000097
:1020C00038B504460D462068844200D138BD036807
:1020D00023605C604561FFF7E5FEF4E7054B03F123
:1020E00014025A619A614FF0FF32DA6100221A62DB
:1020F000704700BFD4360020F8B503611A4BC260A8
:102100005C6A1A4B1A46022952F8145F38BF022142
:10211000954206461F460AD1586198611C620560C7
:10212000456081600819BDE8F84001F093B9186A6C
:10213000AB68241A0C1902D3E41A2D6804E09C42FF
:1021400002D2204401F096F9AB689C42F4D86B6847
:10215000736035601E606E60B460A9684FF0FF3335
:10216000091BA960FB61F8BD000C0040D4360020BB
:1021700010B41A4C234653F8141F814210D0416802
:1021800002680A60026851609A424FF00001C16023
:1021900003D0936881680B4493605DF8044B7047EB
:1021A0000A68626100209A425360C86003D15DF8FA
:1021B000044B01F059B99368886803449360084A56
:1021C000206A526A121A9342E7D9991A012998BFD4
:1021D000931C18445DF8044B01F04CB9D436002030
:1021E000000C004000207047FEE700007047000030
:1021F0004FF0FF3070470000022906D0032906D0B7
:102200000129064818BF0020704705487047032A77
:102210009ABF044800EBC20000207047B03C0008A1
:10222000643C00080824002070B5044608460D46AA
:10223000FEF70EFEC6B22046013403780BB91846ED
:1022400070BD32462946FEF7EBFD0028F3D1012090
:1022500070BD00002DE9F04F80469BB008460C464B
:102260001646FEF7F5FD3A49C5B22046FFF7DCFFFA
:1022700008B10135EDB237492046FFF7D5FF08B167
:102280001035EDB2632D01AF0CD8DFF8D490DFF834
:10229000D4A03D4694F800B0BBF1000F1CD185F8E6
:1022A00000B003E02146384601F006FC3846FEF750
:1022B000CFFDC0B2431C5B0088E8480033700323A5
:1022C0007370002302361946DAB2904206F1020614
:1022D00036D81BB0BDE8F08FBBF1250F2BD10722FC
:1022E0001B492046FEF79CFD40B9DAF800302B6010
:1022F000DAF804306B6007340835CBE7082215495B
:102300002046FEF78DFDB0B91349AB1C11F8012F23
:10231000100902F00F0210F8090012F8092003F862
:10232000012C0E4A03F8020C914203F10203EDD195
:1023300018350834AEE785F800B001340135A9E757
:10234000FA5C06F8022C06F8011C0133BCE700BF5A
:10235000103C0008183C00080F7AFF1F1B7AFF1F73
:102360002A3C0008213C000808B5202383F311888B
:102370000348FFF76FFA002383F3118808BD00BFFD
:102380001437002010B50446052916D8DFE801F0FF
:1023900016150316161D202383F311880E4A0121FA
:1023A000FFF7F8FA20460D4A0221FFF7F3FA0C482E
:1023B000FFF716FA002383F3118810BD202383F35F
:1023C00011880748FFF7E2F9F4E7202383F3118827
:1023D0000348FFF7F9F9EDE7C03B0008E43B0008CC
:1023E0001437002038B50C4D0C4C0D492A4604F129
:1023F0000800FFF72FFF05F1CA0204F11000094998
:10240000FFF728FF05F5CA7204F118000649BDE878
:102410003840FFF71FBF00BFDC3B0020082400202E
:102420003C3C0008463C0008183C0008BFF34F8FB6
:10243000024AD368DB03FCD4704700BF003C024073
:1024400008B5094B1B7873B9FFF7F0FF074B1A6902
:10245000002ABFBF064A5A6002F188325A601A68E1
:1024600022F480621A6008BD3A3E0020003C02401F
:102470002301674508B50B4B1B7893B9FFF7D6FFCF
:10248000094B1A6942F000421A611A6842F48052FC
:102490001A601A6822F480521A601A6842F4806244
:1024A0001A6008BD3A3E0020003C0240172870B573
:1024B00013D80B4A0B4C137863B90B4E4FF00061E5
:1024C00044F8231056F823500133182B2944F7D130
:1024D0000123137054F8200070BD002070BD00BFB0
:1024E0009C3E00203C3E0020D03C0008014B53F8AD
:1024F00020007047D03C000818207047172810B5FE
:10250000044601D9002010BDFFF7D0FF064B53F859
:1025100024301844C21A0BB9012010BD12680132D0
:10252000F0D1043BF6E700BFD03C0008172810B5F7
:10253000044626D8FFF77AFFFFF782FF1249F323FC
:10254000CB60FFF773FF0C23B0FBF3F203FB120029
:10255000D30143EAC003DBB243F4007343F0020348
:102560000B610B6943F480330B61FFF75FFF20467B
:10257000FFF79CFFFFF77EFF2046BDE81040FFF706
:10258000BDBF002010BD00BF003C02402DE9F84354
:1025900012F00103154643D10244B2F1026F3FD25B
:1025A0002C4B1B6813F001033AD02B4CFFF748FF6C
:1025B000F323E360FFF73AFF40F20127032D16D81B
:1025C000254C0F46401A40F20118EB1B0B44012B1F
:1025D00000EB0706236926D823F001032361FFF7E8
:1025E00049FF0120BDE8F883043D0430E6E7830796
:1025F000E6D1236923F44073236123693B432361BC
:1026000051F8046B0660BFF34F8FFFF70FFF0368AD
:102610009E42E9D0236923F001032361FFF72AFFDB
:102620000020BDE8F88323F440732361236943EA63
:1026300008032361B94637F8023B3380BFF34F8F5D
:10264000FFF7F4FE3688B9F80030B6B2B342BCD01A
:10265000E0E700BF00380240003C0240084908B5EE
:102660000B7828B153B9FFF7EBFE01230B7008BDBF
:1026700023B1BDE808400870FFF7FCBE08BD00BFED
:102680003A3E0020014B53F820007047502800408C
:102690000A4B1A6F120407D41A6F42F400721A67B9
:1026A0001A6F42F400421A67054A136843F48073B4
:1026B000136000B2034B43F820107047003802400B
:1026C0000070004050280040014B1868704700BF60
:1026D0005028004001460020FFF7DABF38B5094B0B
:1026E0001B689B000CD5084B084D01221A70002472
:1026F000E0B2FFF7C7FF45F824000134082CF7D1FA
:1027000038BD00BF74380240C03E0020A03E00200B
:10271000014B1878704700BFC03E0020064A53683E
:1027200023F001035360EFF30983683383F30988CF
:10273000002383F31188704730EF00E010B52023A9
:1027400083F31188104B5B6813F4006318D0F1EE2B
:10275000103AEFF309844FF0807344F84C3C0B4B74
:10276000DB6844F8083CA4F1680383F30988FFF7A9
:102770001FFC18B1064B44F8503C10BD054BFAE75E
:1027800083F3118810BD00BF00ED00E030EF00E0E2
:10279000310300083403000870470000FEE7000022
:1027A000084A094B09498B4204D3094A0021934244
:1027B00005D3704752F8040F43F8040BF3E743F8CE
:1027C000041BF4E7AC3E0008B8410020B8410020EB
:1027D000B8410020836D30B500229D68446D1146DC
:1027E0004FF0FF3004EB421301329542C3F8001959
:1027F000C3F81019C3F80809C3F8001BC3F8101B6D
:10280000C3F8080BEED24FF00113C4F81C3830BDEA
:10281000890141F02001016103699B06FCD412206B
:1028200000F0B4BE204B03EB80022DE9F047D2F854
:102830000CE05D6DDEF81420461CD2F800C005EBFC
:10284000063605EB4018516861450BD3D5F834289E
:10285000012303FA00F022EA0000C5F83408184604
:10286000BDE8F087BEF81040ACEB0103A34228BFDF
:102870002346D8F81849A4B2B3EB840F10D8946853
:102880001F46A4F1040959F804AFC6F800A0042FAC
:1028900001D9043FF7E71C440B4494605360D2E72E
:1028A0000020BDE8F08700BFC43E002010B5054CF5
:1028B0002046FFF74FF84FF0A0436365024BA36536
:1028C00010BD00BFC43E0020543D00080378012B1A
:1028D00070B5054650D12A4B446D98421BD1294B07
:1028E0005A6B42F080025A635A6D42F080025A6578
:1028F0005A6D5A6942F080025A615A6922F0800288
:102900005A610E2143205B69FEF78EFC1E4BE3608B
:102910001E4BC4F800380023C4F8003EC0232360D7
:102920006E6D4FF45023A3633369002BFCDA01234F
:1029300033610C2000F02AFE3369DB07FCD412203F
:1029400000F024FE3369002BFCDA0026A66028463E
:10295000FFF740FF6B68C4F81068DB68C4F81468C0
:10296000C4F81C684BB90A4BA3614FF0FF33636195
:10297000A36843F00103A36070BD064BF4E700BFFA
:10298000C43E0020003802404014004003002002F2
:10299000003C30C0083C30C0F8B5446D054600210D
:1029A0002046FFF735FFA96D00234FF001128F6815
:1029B000C4F834384FF00066C4F81C284FF0FF30DC
:1029C00004EB431201339F42C2F80069C2F8006B66
:1029D000C2F80809C2F8080BF2D20B686A6DEB6501
:1029E000636210231361166916F01006FBD11220E2
:1029F00000F0CCFDD4F8003823F4FE63C4F80038AE
:102A0000A36943F4402343F01003A3610923C4F8EE
:102A10001038C4F814380A4BEB604FF0C043C4F8C8
:102A2000103B084BC4F8003BC4F81069C4F80039E7
:102A3000EB6D03F1100243F48013EA65A362F8BD65
:102A4000303D000840800010426D90F84E10D2F8E2
:102A5000003823F4FE6343EA0113C2F800387047DC
:102A60002DE9F0410EB200EB86080D46D8F80C10A7
:102A70000F6807F00303022B50D0032B50D03D4AC0
:102A80003D4F012B18BF1746446D4FEA451E04EB1E
:102A90000E030022C3F8102B8A6905F1100C002ADE
:102AA00040D04A8A05F158035B013A43E2500123C2
:102AB000D4F81C2803FA0CF31343A6444A69C4F85B
:102AC0001C380023CEF8103905F13F03002A39D015
:102AD0000A8A898B9208012988BF4A43C16D04EB99
:102AE0008303561841EA0242C66529465A602046C9
:102AF000FFF78EFED8F80C301B8A43EA85531F433C
:102B000005F148035B01E7500123D4F81C2803FAC0
:102B100005F51543C4F81C58BDE8F081174FB3E71D
:102B2000174FB1E704EB4613D3F8002B22F4004211
:102B3000C3F8002BD4F81C28012303FA0CF322EA73
:102B40000303BAE704EB83030E4A5A6004EB46160C
:102B500029462046FFF75CFED6F8003923F40043EF
:102B6000C6F80039D4F81C38012202FA05F523EA28
:102B70000505CFE7008000100080041000800810D9
:102B800000800C1000040002826D1268C265FFF71D
:102B900021BE00005831436D49015B5813F40040D9
:102BA00004D013F4001F14BF01200220704700005E
:102BB0004831436D49015B5813F4004004D013F4CD
:102BC000001F14BF012002207047000000EB8101AC
:102BD000CB68196A0B6813604B685360704700003C
:102BE00000EB810330B5DD68AA691368D36019B9B9
:102BF000402B84BF402313606B8A1468426D1C44D1
:102C0000013CB4FBF3F46343033323F0030302EB0F
:102C1000411043EAC44343F0C043C0F8103B2B6863
:102C200003F00303012B09B20ED1D2F8083802EBEE
:102C3000411013F4807FD0F8003B14BF43F0805361
:102C400043F00053C0F8003B02EB4112D2F8003BC6
:102C500043F00443C2F8003B30BD00002DE9F041D1
:102C6000244D6E6D06EB40130446D3F8087BC3F881
:102C7000087B38070AD5D6F81438190706D505EBAE
:102C800084032146DB6828465B689847FA072FD5FE
:102C9000D6F81438DB072BD505EB8403D968CCB9FB
:102CA0008B69488A5E68B6FBF0F200FB12628AB953
:102CB0001868DA6890420DD2121A83E814002023B3
:102CC00083F311880B482146FFF78AFF84F31188AC
:102CD000BDE8F081012303FA04F26B8923EA0203C1
:102CE0006B81CB6823B121460248BDE8F04118470B
:102CF000BDE8F081C43E002000EB810370B5DD68C3
:102D0000436D6C692668E6604A0156BB1A444FF46D
:102D10000020C2F810092A6802F00302012A0AB250
:102D20000ED1D3F8080803EB421410F4807FD4F8D6
:102D3000000914BF40F0805040F00050C4F8000972
:102D400003EB4212D2F8000940F00440C2F8000937
:102D5000D3F83408012202FA01F10143C3F8341810
:102D600070BD19B9402E84BF4020206020682E8A93
:102D7000841940F00050013C1A44B4FBF6F440EAD8
:102D8000C440C6E7F8B504461E48456D05EB44133C
:102D9000D3F80869C3F80869F10717D5D5F81038D2
:102DA000DA0713D500EB8403D9684B691F68DA682A
:102DB000974218D2D21B00271A605F60202383F34A
:102DC00011882146FFF798FF87F31188330617D53E
:102DD000D5F834280123A340134211D02046BDE882
:102DE000F840FFF71FBD012303FA04F2038923EA29
:102DF000020303818B68002BE8D021469847E5E762
:102E0000F8BD00BFC43E002096482DE9F84F456D3F
:102E10006E69AB691E4016F4805F6E61044605D092
:102E2000FEF704FEBDE8F84FFFF788BC002E12DA6B
:102E3000D5F8003E8B489B071EBFD5F8003E23F017
:102E40000303C5F8003ED5F8043823F00103C5F8A4
:102E50000438FEF715FE370502D58248FEF704FE5A
:102E6000B0040CD5D5F8083813F0060FEB6823F43E
:102E700070530CBF43F4105343F4A053EB6031077D
:102E800004D56368DB680BB176489847F2025AD4E0
:102E9000B3020CD5D4F85480DFF8C8A100274FF056
:102EA0000109A36D9B68F9B28B4280F08780F70619
:102EB00019D5616D0A6AC2F30A1702F00F0302F412
:102EC000F012B2F5802F00F0A180B2F5402F0AD1A8
:102ED00004EB830301F58051DB68186A00231A466E
:102EE0009F4240F087803003D5F8184813D5E1039E
:102EF00002D50020FFF7B2FEA20302D50120FFF7A2
:102F0000ADFE630302D50220FFF7A8FE270302D51A
:102F10000320FFF7A3FE750384D5E00702D5002048
:102F2000FFF730FFA10702D50120FFF72BFF620753
:102F300002D50220FFF726FF23077FF573AF03209A
:102F4000FFF720FF6EE7D4F85480DFF818A10027C0
:102F50004FF00109A36D9B685FFA87FB5B4597D330
:102F600008EB4B13D3F8002902F44022B2F5802F6E
:102F700022D1D3F80029002A1EDAD3F8002942F022
:102F80009042C3F80029D3F80029002AFBDB5946F8
:102F9000606DFFF73DFC228909FA0BF322EA030377
:102FA000238104EB8B03DB689B6813B159465046C1
:102FB00098475846FFF736FC0137CBE708EB41123C
:102FC000D2F8003B03F44023B3F5802F10D1D2F8A0
:102FD000003B002B0CDA628909FA01F322EA0303B1
:102FE000638104EB8103DB68DB680BB150469847D3
:102FF000013756E79C0708BF0A68072B98BF027085
:1030000003F101039CBF120A013069E7023304EBAC
:10301000830201F58051526890690268D0F808C0B7
:103020004068A2EB000E0022104697420AD104EB42
:10303000830463689B699A683A449A605A681744A3
:103040005F6050E712F0030F08BF0868964588BF1D
:103050008CF8000002F1010284BF000A0CF1010C9F
:10306000E3E700BFC43E0020436D03EB4111D1F8FC
:10307000003B43F40013C1F8003B7047436D03EB82
:103080004111D1F8003943F40013C1F800397047F9
:10309000436D03EB4111D1F8003B23F40013C1F859
:1030A000003B7047436D03EB4111D1F8003923F425
:1030B0000013C1F80039704730B5039C0172043326
:1030C00004FB0325C361049B03630021059B00608F
:1030D0004060C16042610261856104624262816256
:1030E000C162436330BD00000022416A4161016159
:1030F000C2608262C2626FF00101FEF7E1BF0000B0
:1031000003694269934203D1C2680AB10020704743
:10311000181D704703691960C2680132C260C26934
:10312000134482690361934224BF436A036100210F
:10313000FEF7BABF38B504460D46E3683BB1626995
:10314000131D1268A3621344E362002038BD237A82
:1031500033B929462046FEF797FF0028EDDA38BD3F
:103160006FF00100FBE70000C368C269013BC36068
:103170004369134482694361934224BF436A4361B4
:1031800000238362036B03B11847704770B5202397
:10319000044683F31188866A3EB9FFF7CBFF0546E4
:1031A00018B186F31188284670BDA36AE26A13F845
:1031B000015BA362934202D32046FFF7D5FF0023B1
:1031C00083F31188EFE700002DE9F84F04460E461F
:1031D00090469946202787F311880025AA46D4F8FF
:1031E00028B0BBF1000F09D149462046FFF7A2FFE6
:1031F00020B18BF311882846BDE8F88FA16AE36AF5
:10320000A8EB050B5B1A9B4528BF9B46BBF1400F03
:103210001BD9334601F1400251F8040B43F8040B6B
:103220009142F9D1A36A40334036A3624035A26A85
:10323000E36A9A4202D32046FFF796FF8AF3118889
:103240004545D8D287F31188C9E730465A46FDF77D
:10325000DDFDA36A5B445E44A3625D44E7E70000D2
:1032600010B5029C0172043303FB0421C3610023E7
:103270008362C362039B0363049B00604060C4607D
:1032800042610261816104624262436310BD0000D9
:10329000026AC260426A4261026100228262C262C4
:1032A0006FF00101FEF70CBF436902699A4203D136
:1032B000C2680AB100207047184650F8043B0B6002
:1032C00070470000C368C2690133C3604369134497
:1032D00082694361934224BF436A43610021FEF740
:1032E000E3BE000038B504460D46E3683BB12369F0
:1032F0001A1DA262E2691344E362002038BD237AFA
:1033000033B929462046FEF7BFFE0028EDDA38BD66
:103310006FF00100FBE7000003691960C268013A21
:10332000C260C269134482690361934224BF436A45
:10333000036100238362036B03B1184770470000E9
:1033400070B5202304460E4683F31188856A35B98B
:103350001146FFF7C7FF10B185F3118870BDA36A4E
:103360001E70A36AE26A01339342A36204D3E16947
:1033700020460439FFF7D0FF002080F3118870BD8C
:103380002DE9F84F04460D4691469A464FF0200825
:1033900088F311880026B346A76A4FB951462046E4
:1033A000FFF7A0FF20B187F311883046BDE8F88F02
:1033B000A06AE76AA9EB06033F1A9F4228BF1F468F
:1033C000402F1BD905F1400355F8042B40F8042B7E
:1033D0009D42F9D1A36A4033A3624036A26AE36AF0
:1033E0009A4204D3E16920460439FFF795FF8BF335
:1033F00011884E45D9D288F31188CDE729463A463F
:10340000FDF704FDA36A3B443D44A3623E44E5E767
:10341000026943699A4203D1C3681BB918467047D1
:103420000023FBE7836A002BF8D0043B9B1AF5D0FE
:103430001360C368013BC360C3691A4483690261B6
:103440009A4224BF436A0361002383620123E5E7B4
:1034500000F034B9034B002258631A610222DA608B
:10346000704700BF000C0040014B0022DA6070473B
:10347000000C0040014B5863704700BF000C004037
:10348000FEE7000010B5174CFEF704FDFEF726FE20
:10349000802215492046FEF7ABFD012344F8180CA5
:1034A0000374124B124AD96821F4E0610904090C33
:1034B0000A431049DA60CA6842F08072CA600E4955
:1034C0000A6842F001020A601022DA77202283F8AB
:1034D0002220002383F3118862B60848BDE810401B
:1034E000FEF7A8BDFC360020603D000800ED00E0BE
:1034F0000003FA05F0ED00E0001000E0683D000870
:103500002DE9F84F1F4CDFF88090656904F114072E
:103510004FF00008D9F82430266AAA689E1B96420C
:103520001DD34FF0200AAA68236AD5F80CB01344C3
:1035300023622B68BB425F60A6EB02066361C5F89D
:103540000C8001D1FFF790FF88F311882869D847D4
:103550008AF311886569AB689E42E4D2DAE7626952
:10356000BA420CD0916823628E1B9660A86802282C
:103570002CBF1818981CBDE8F84FFFF77BBFBDE8BB
:10358000F88F00BFD4360020000C0040034B596870
:103590005A68521A9042FBD8704700BF001000E0F2
:1035A0004B6843608B688360CB68C3600B69436181
:1035B0004B6903628B6943620B68036070470000CC
:1035C00008B5224B22481A6940F2FF110A431A61DA
:1035D0001A6922F4FF7222F001021A611A691A6B49
:1035E0000A431A631A6D0A431A651A4A1B6D11467B
:1035F000FFF7D6FF184802F11C01FFF7D1FF17486B
:1036000002F13801FFF7CCFF154802F15401FFF732
:10361000C7FF144802F17001FFF7C2FF124802F120
:103620008C01FFF7BDFF114802F1A801FFF7B8FFB9
:103630000F4802F1C401FFF7B3FF0E4802F1E001A9
:10364000FFF7AEFFBDE8084000F0A4B80038024024
:1036500000000240883D00080004024000080240CB
:10366000000C02400010024000140240001802400A
:10367000001C02400020024008B500F0FFF9FFF7EF
:1036800001FFFFF72BF8BDE80840FEF7ABBE0000D6
:1036900070470000084B1A69920710B508D500243E
:1036A0001C61202383F31188FFF72AFF84F311881C
:1036B000BDE81040FFF742B8000C0040104B1A6CF8
:1036C00042F008021A641A6E42F008021A660D4AA5
:1036D0001B6E936843F0080393600B4B53229A626E
:1036E0004FF0FF32DA6200229A615A63DA605A6060
:1036F00001225A6108211A603220FDF795BD00BFF2
:1037000000380240002004E0000C00401F4B1A6902
:103710006FEAC2526FEAD2521A611A69C2F3080202
:103720001A614FF0FF301A695A69586100215A69CD
:1037300059615A691A6A62F080521A621A6A02F072
:1037400080521A621A6A5A6A58625A6A59625A6AE6
:103750001A6C42F080521A641A6E42F080521A6655
:103760001A6E0B4A106840F480701060186F00F4F5
:103770004070B0F5007F1EBF4FF4803018671967A6
:10378000536823F40073536000F058B900380240C6
:1037900000700040324B4FF080521A64314A4FF4AF
:1037A000404111601A6842F001021A601A689207DB
:1037B000FCD59A6822F003029A60294B19469A6850
:1037C00012F00C02FBD1186800F0F90018609A6042
:1037D0001A6842F480321A600B689B03FCD54B6F69
:1037E00043F001034B671E4B5A6F9007FCD51E4AEE
:1037F0005A601A6842F080721A601A4A5368590473
:10380000FCD5174B1A689201FCD5184A9A6003221E
:10381000C3F88C20164B1A68164B9A42164B1BD1D4
:10382000164A1168164A914216D140F205121A60E2
:103830000B4B9A6842F002029A609A6802F00C02FE
:10384000082AFAD15A6C42F480425A645A6E42F401
:1038500080425A665B6E704740F20572E7E700BF30
:103860000038024000700040185440070094883827
:10387000002004E011640020003C024000ED00E064
:1038800041C20F41084A08B5536911680B4003F063
:103890000103536123B1054A13680BB1506898477F
:1038A000BDE80840FEF74ABF003C01403841002017
:1038B000084A08B5536911680B4003F002035361CD
:1038C00023B1054A93680BB1D0689847BDE808401A
:1038D000FEF734BF003C014038410020084A08B5DB
:1038E000536911680B4003F00403536123B1054A87
:1038F00013690BB150699847BDE80840FEF71EBF39
:10390000003C014038410020084A08B5536911685D
:103910000B4003F00803536123B1054A93690BB1CF
:10392000D0699847BDE80840FEF708BF003C014059
:1039300038410020084A08B5536911680B4003F06C
:103940001003536123B1054A136A0BB1506A9847BB
:10395000BDE80840FEF7F2BE003C014038410020BF
:10396000174B10B55C691A68144004F478725A61F8
:10397000A30604D5134A936A0BB1D06A9847600630
:1039800004D5104A136B0BB1506B9847210604D530
:103990000C4A936B0BB1D06B9847E20504D5094AEA
:1039A000136C0BB1506C9847A30504D5054A936C72
:1039B0000BB1D06C9847BDE81040FEF7BFBE00BF0A
:1039C000003C0140384100201A4B10B55C691A6870
:1039D000144004F47C425A61620504D5164A136D02
:1039E0000BB1506D9847230504D5134A936D0BB165
:1039F000D06D9847E00404D50F4A136E0BB1506E9A
:103A00009847A10404D50C4A936E0BB1D06E984729
:103A1000620404D5084A136F0BB1506F9847230412
:103A200004D5054A936F0BB1D06F9847BDE810409D
:103A3000FEF784BE003C014038410020062108B555
:103A40000846FDF7F1FB06210720FDF7EDFB0621F7
:103A50000820FDF7E9FB06210920FDF7E5FB06211B
:103A60000A20FDF7E1FB06211720FDF7DDFB06210B
:103A70002820BDE80840FDF7D7BB000008B5FFF7D8
:103A800045FE00F00DF8FDF775FDFDF761FFFDF750
:103A900035FEFFF7FDFDBDE80840FFF7D9BC00008B
:103AA000002304491A465A50C8180833802B426034
:103AB000F9D1704738410020034611F8012B03F873
:103AC000012B002AF9D170471210121312110000B5
:103AD00053544D3332463F3F3F0000000120330036
:103AE0000010410101105A01031059010710310162
:103AF00000000000D03A00083F000000130400005E
:103B0000303B00083F000000190400003A3B000869
:103B10003F00000021040000443B00083F0000007B
:103B2000143700209C290020042E00206C32002035
:103B300053544D3332463430780053544D3332466B
:103B40003432780053544D333246343436585800AA
:103B500000960000000000000000000000000000CF
:103B600000000000000000003D15000829150008B5
:103B700065150008511500085D1500084915000875
:103B80003515000821150008711500080000000017
:103B900075160008611600089D16000889160008B1
:103BA00095160008811600086D16000859160008C1
:103BB000F9160008000000000100000000000000ED
:103BC0000200000000000000A11800080919000808
:103BD00040004000AC3B0020BC3B00200200000045
:103BE0000000000003000000000000004D19000864
:103BF0000000000010000000CC3B0020000000008E
:103C00000100000000000000C43E0020010102008D
:103C100025424F41524425002553455249414C25E8
:103C2000005069786861776B310030313233343558
:103C30003637383941424344454600004172647585
:103C400050696C6F740025424F415244252D424CFF
:103C50000000000085230008F92100080D18000865
:103C600069230008430000006C3C0008090243007F
:103C7000020100C032090400000102020100052413
:103C8000001001052401000104240202052406009D
:103C900001070582030800FF09040100020A000071
:103CA00000070501024000000705810240000000F6
:103CB00012000000B83C0008120110010200004090
:103CC00083044057000201020301000004030904B9
:103CD00000400000004000000040000000400000E4
:103CE00000000100000002000000020000000200CD
:103CF00000000200000002000000020000000200BC
:103D000000400000004000000040000000400000B3
:103D1000000001000000020000000200000002009C
:103D2000000002000000020000000200000002008B
:103D300000000000951A0008751D0008211E0008EB
:103D400040004000243F0020243F002001000000EC
:103D5000343F00208000000040010000030000000C
:103D60006D61696E00000000803D0008403F00204A
:103D700038410020010000008134000800000000EC
:103D800069646C65000000000000802A00020000E9
:103D9000AAAAAAAA00000000FFFF0000000000007D
:103DA00000A00A000000000000000000AAAAAAAAC1
:103DB00000000000FFFF0000000000000000000005
:103DC0000000000000000000AAAAAAAA000000004B
:103DD000FFFF0000000000000000000080298A01B1
:103DE00000000000AAAAAAAA40154501FFFF000092
:103DF0000070700777700000008002010000000072
:103E0000AAAAAAAA00400100FFFF0000000000804B
:103E1000080000000000000000000000AAAAAAAAF2
:103E200000000000FFFF0000000000000000000094
:103E30000000000000000000AAAAAAAA00000000DA
:103E4000FFFF000000000000000000000000000074
:103E5000000000000A000000000000000300000055
:103E60000000000000000000000000000000000052
:103E70000000000000000000000000000000000042
:103E80000000000000000000FF0096000000000895
:103E900004000000CC3C000800000000000000000E
:103EA0000000000000000000000000000000000012
:103EB000FFFFFFFFFFFFFFFFFFFFFFFFFFFFFFFF12
:103EC000FFFFFFFFFFFFFFFFFFFFFFFFFFFFFFFF02
:103ED000FFFFFFFFFFFFFFFFFFFFFFFFFFFFFFFFF2
:103EE000FFFFFFFFFFFFFFFFFFFFFFFFFFFFFFFFE2
:103EF000FFFFFFFFFFFFFFFFFFFFFFFFFFFFFFFFD2
:103F0000FFFFFFFFFFFFFFFFFFFFFFFFFFFFFFFFC1
:103F1000FFFFFFFFFFFFFFFFFFFFFFFFFFFFFFFFB1
:103F2000FFFFFFFFFFFFFFFFFFFFFFFFFFFFFFFFA1
:103F3000FFFFFFFFFFFFFFFFFFFFFFFFFFFFFFFF91
:103F4000FFFFFFFFFFFFFFFFFFFFFFFFFFFFFFFF81
:103F5000FFFFFFFFFFFFFFFFFFFFFFFFFFFFFFFF71
:103F6000FFFFFFFFFFFFFFFFFFFFFFFFFFFFFFFF61
:103F7000FFFFFFFFFFFFFFFFFFFFFFFFFFFFFFFF51
:103F8000FFFFFFFFFFFFFFFFFFFFFFFFFFFFFFFF41
:103F9000FFFFFFFFFFFFFFFFFFFFFFFFFFFFFFFF31
:103FA000FFFFFFFFFFFFFFFFFFFFFFFFFFFFFFFF21
:103FB000FFFFFFFFFFFFFFFFFFFFFFFFFFFFFFFF11
:103FC000FFFFFFFFFFFFFFFFFFFFFFFFFFFFFFFF01
:103FD000FFFFFFFFFFFFFFFFFFFFFFFFFFFFFFFFF1
:103FE000FFFFFFFFFFFFFFFFFFFFFFFFFFFFFFFFE1
:103FF000FFFFFFFFFFFFFFFFFFFFFFFFFFFFFFFFD1
:10400000000400205D530008FD900508019105089B
:104010006591050801910508319105085F53000875
:104020005F5300085F5300085F530008A94F0C0856
:104030005F5300085F5300085F5300085F53000898
:104040005F5300085F5300085F5300085F53000888
:104050005F5300085F530008FDAD0C082DAE0C083F
:104060005DAE0C088DAE0C08BDAE0C0801530C08FB
:104070002D530C085D530C088D530C08BD530C08D0
:10408000E9530C0819540C087D510C08658A050881
:10409000798A0508918A05085F530008EDAE0C087F
:1040A0005F5300085F5300085F5300085F53000828
:1040B0005F5300085F5300085F530008315C0C0831
:1040C000495C0C08755C0C088D5C0C085F5300089B
:1040D0005F5300085F530008416E0C08596E0C08CE
:1040E00059AF0C085F5300085F5300085F53000886
:1040F0005F5300085F5300085F53000849540C08E1
:104100005F53000851600C081DB60C085F5300088F
:10411000716E0C085F5300085F5300085F5300087E
:1041200079540C08A5540C08D5540C0805550C08F6
:1041300035550C085F5300085F530008A98A05082D
:10414000BD8A0508D58A05085F530008C5A90C0873
:1041500061550C0891550C08C1550C08896E0C0866
:104160005F5300085F5300085F5300085F53000867
:104170005F5300085F5300085F5300085F53000857
:104180005F5300085F530008A16E0C08B96E0C085D
:104190005F5300085F5300085F5300085F53000837
:1041A0005F5300085F5300085F5300085F53000827
:1041B0005F5300085F5300085F5300085F53000817
:1041C0005F5300085F5300085F5300085F53000807
:1041D0005F5300085F5300085F5300085F530008F7
:1041E000357C000891A100083D1D01083930010807
:1041F000713901080D410108C14501082147010835
:10420000B54D010899800108599E0108DDE50108B6
:1042100051790208E1DF020825010308B90B030800
:1042200015850308698C0308A18F0308D1FB0308D7
:1042300089D70408F9740508C1790508197C0508AF
:104240005D8B0508958F050825960508499F06088A
:1042500029AB060835D2060849E20608DDF706084C
:104260000DF80608E51C0708D1510708B56B0708CB
:10427000C5940708F92D0A0865320A083D340A0872
:104280008D370A0805620A08F1B20A085DBF0A08FC
:10429000DDC50A0881E40A081DEF0A08D5080B08E5
:1042A00005200C08000000000000000000000000D5
:1042B000D0400B1CD1409C46203AD3401843524278
:1042C0006346934018437047D0400B1C1141203A7D
:1042D00003D49C461341184363465242934018430B
:1042E000704700BF9140031C90409C46203A934089
:1042F000194352426346D3401943704781F000414D
:1043000002E000BF83F0004330B54FEA41044FEABA
:10431000430594EA050F08BF90EA020F1FBF54EA55
:10432000000C55EA020C7FEA645C7FEA655C00F0F1
:10433000E2804FEA5454D4EB5555B8BF6D420CDDC2
:104340002C4480EA020281EA030382EA000083EA45
:10435000010180EA020281EA0303362D88BF30BDE5
:1043600011F0004F4FEA01314FF4801C4CEA11313B
:1043700002D0404261EB410113F0004F4FEA03339A
:104380004CEA133302D0524263EB430394EA050F25
:1043900000F0A780A4F10104D5F1200E0DDB02FA94
:1043A0000EFC22FA05F2801841F1000103FA0EF228
:1043B000801843FA05F359410EE0A5F120050EF1EE
:1043C000200E012A03FA0EFC28BF4CF0020C43FA1F
:1043D00005F3C01851EBE37101F0004507D54FF02C
:1043E000000EDCF1000C7EEB00006EEB0101B1F57C
:1043F000801F1BD3B1F5001F0CD349085FEA3000C2
:104400004FEA3C0C04F101044FEA445212F5800FCC
:1044100080F09A80BCF1004F08BF5FEA500C50F169
:10442000000041EB045141EA050130BD5FEA4C0C4C
:10443000404141EB010111F4801FA4F10104E9D1D5
:1044400091F0000F04BF01460020B1FA81F308BFCC
:104450002033A3F10B03B3F120020CDA0C3208DD98
:1044600002F1140CC2F10C0201FA0CF021FA02F173
:104470000CE002F11402D8BFC2F1200C01FA02F1E3
:1044800020FA0CFCDCBF41EA0C019040E41AA2BF08
:1044900001EB0451294330BD6FEA04041F3C1CDAD0
:1044A0000C340EDC04F11404C4F1200220FA04F0F0
:1044B00001FA02F340EA030021FA04F345EA03019A
:1044C00030BDC4F10C04C4F1200220FA02F001FA5C
:1044D00004F340EA0300294630BD21FA04F02946DE
:1044E00030BD94F0000F83F4801306BF81F4801177
:1044F0000134013D4EE77FEA645C18BF7FEA655CEA
:1045000029D094EA050F08BF90EA020F05D054EABB
:10451000000C04BF1946104630BD91EA030F1EBFC0
:104520000021002030BD5FEA545C05D140004941C4
:1045300028BF41F0004130BD14F580043CBF01F5B7
:10454000801130BD01F0004545F0FE4141F470019D
:104550004FF0000030BD7FEA645C1ABF1946104678
:104560007FEA655C1CBF0B46024650EA013406BF79
:1045700052EA033591EA030F41F4002130BD00BF38
:1045800090F0000F04BF0021704730B54FF48064F5
:1045900004F132044FF000054FF0000150E700BF76
:1045A00090F0000F04BF0021704730B54FF48064D5
:1045B00004F1320410F0004548BF40424FF00001C2
:1045C0003EE700BF42004FEAE2014FEA31014FEA05
:1045D00002701FBF12F07F4393F07F4F81F0605154
:1045E000704792F0000F14BF93F07F4F704730B5C3
:1045F0004FF4607401F0004521F0004120E700BF56
:1046000050EA010208BF704730B54FF000050AE0DC
:1046100050EA010208BF704730B511F0004502D5DD
:10462000404261EB41014FF4806404F132045FEADF
:10463000915C3FF4DCAE4FF003025FEADC0C18BF84
:1046400003325FEADC0C18BF033202EBDC02C2F17A
:10465000200300FA03FC20FA02F001FA03FE40EA0C
:104660000E0021FA02F11444C1E600BF70B54FF00C
:10467000FF0C4CF4E06C1CEA11541DBF1CEA1355EE
:1046800094EA0C0F95EA0C0F00F0DEF82C4481EA56
:10469000030621EA4C5123EA4C5350EA013518BF76
:1046A00052EA033541F4801143F4801338D0A0FB63
:1046B00002CE4FF00005E1FB02E506F00042E0FB10
:1046C00003E54FF00006E1FB03569CF0000F18BF16
:1046D0004EF0010EA4F1FF04B6F5007F64F54074BE
:1046E00004D25FEA4E0E6D4146EB060642EAC62151
:1046F00041EA55514FEAC52040EA5E504FEACE2EBE
:10470000B4F1FD0C88BFBCF5E06F1ED8BEF1004FC0
:1047100008BF5FEA500E50F1000041EB045170BD3C
:1047200006F0004646EA010140EA020081EA030180
:10473000B4EB5C04C2BFD4EB0C0541EA045170BD7C
:1047400041F480114FF0000E013C00F3AB8014F1F6
:10475000360FDEBF002001F0004170BDC4F100043F
:10476000203C35DA0C341BDC04F11404C4F12005C0
:1047700000FA05F320FA04F001FA05F240EA02001B
:1047800001F0004221F0004110EBD37021FA04F651
:1047900042EB06015EEA430E08BF20EAD37070BD0B
:1047A000C4F10C04C4F1200500FA04F320FA05F06A
:1047B00001FA04F240EA020001F0004110EBD3706C
:1047C00041F100015EEA430E08BF20EAD37070BDDC
:1047D000C4F1200500FA05F24EEA020E20FA04F3B5
:1047E00001FA05F243EA020321FA04F001F0004164
:1047F00021FA04F220EA020000EBD3705EEA430ED5
:1048000008BF20EAD37070BD94F0000F0FD101F003
:104810000046400041EB010111F4801F08BF013C3C
:10482000F7D041EA060195F0000F18BF704703F07A
:104830000046520043EB030313F4801F08BF013D01
:10484000F7D043EA0603704794EA0C0F0CEA1355BD
:1048500018BF95EA0C0F0CD050EA410618BF52EA77
:104860004306D1D181EA030101F000414FF000007D
:1048700070BD50EA410606BF1046194652EA43068B
:1048800019D094EA0C0F02D150EA013613D195EAFF
:104890000C0F05D152EA03361CBF104619460AD147
:1048A00081EA030101F0004141F0FE4141F4700151
:1048B0004FF0000070BD41F0FE4141F4780170BD41
:1048C00070B54FF0FF0C4CF4E06C1CEA11541DBFA6
:1048D0001CEA135594EA0C0F95EA0C0F00F0A7F8A8
:1048E000A4EB050481EA030E52EA03354FEA0131D5
:1048F00000F088804FEA03334FF0805545EA1313E8
:1049000043EA12634FEA022245EA111545EA1065AF
:104910004FEA00260EF000419D4208BF964244F146
:10492000FD0404F5407402D25B084FEA3202B61A65
:1049300065EB03055B084FEA32024FF480104FF439
:10494000002CB6EB020E75EB030E22BFB61A7546AD
:1049500040EA0C005B084FEA3202B6EB020E75EB40
:10496000030E22BFB61A754640EA5C005B084FEAA8
:104970003202B6EB020E75EB030E22BFB61A754675
:1049800040EA9C005B084FEA3202B6EB020E75EB80
:10499000030E22BFB61A754640EADC0055EA060E41
:1049A00018D04FEA051545EA16754FEA06164FEA84
:1049B000C30343EA52734FEAC2025FEA1C1CC0D130
:1049C00011F4801F0BD141EA00014FF000004FF0BD
:1049D000004CB6E711F4801F04BF01430020B4F17E
:1049E000FD0C88BFBCF5E06F3FF6AFAEB5EB030C36
:1049F00004BFB6EB020C5FEA500C50F1000041EB33
:104A0000045170BD0EF0004E4EEA113114EB5C04FF
:104A1000C2BFD4EB0C0541EA045170BD41F48011D2
:104A20004FF0000E013C90E645EA060E8DE60CEADA
:104A3000135594EA0C0F08BF95EA0C0F3FF43BAFF7
:104A400094EA0C0F0AD150EA01347FF434AF95EAAE
:104A50000C0F7FF425AF104619462CE795EA0C0F92
:104A600006D152EA03353FF4FDAE1046194622E75F
:104A700050EA410618BF52EA43067FF4C5AE50EA39
:104A800041047FF40DAF52EA43057FF4EBAE12E729
:104A90004FF0FF3C06E000BF4FF0010C02E000BF0A
:104AA0004FF0010C4DF804CD4FEA410C7FEA6C5CED
:104AB0004FEA430C18BF7FEA6C5C1BD001B050EA90
:104AC000410C0CBF52EA430C91EA030F02BF90EA7B
:104AD000020F0020704710F1000F91EA030F58BF3A
:104AE000994208BF90422CBFD8176FEAE37040F09C
:104AF000010070474FEA410C7FEA6C5C02D150EA3A
:104B0000013C07D14FEA430C7FEA6C5CD6D152EAF4
:104B1000033CD3D05DF8040B704700BF84461046B9
:104B200062468C461946634600E000BF01B5FFF7B8
:104B3000B7FF002848BF10F1000F01BD4DF808ED88
:104B4000FFF7F4FF0CBF012000205DF808FB00BF59
:104B50004DF808EDFFF7EAFF34BF012000205DF8B3
:104B600008FB00BF4DF808EDFFF7E0FF94BF012000
:104B700000205DF808FB00BF4DF808EDFFF7CEFF01
:104B800094BF012000205DF808FB00BF4DF808ED40
:104B9000FFF7C4FF34BF012000205DF808FB00BF11
:104BA0004FEA410C7FEA6C5C02D150EA013C0AD129
:104BB0004FEA430C7FEA6C5C02D152EA033C02D11B
:104BC0004FF0000070474FF0010070474FEA41027C
:104BD00012F5001215D211D56FF47873B3EB62524F
:104BE00012D94FEAC12343F0004343EA505311F076
:104BF000004F23FA02F018BF404270474FF0000008
:104C0000704750EA013005D111F0004008BF6FF045
:104C1000004070474FF00000704700BF4A0011D2BB
:104C200012F5001211D20DD56FF47873B3EB625206
:104C30000ED44FEAC12343F0004343EA505323FA12
:104C400002F070474FF00000704750EA013002D187
:104C50004FF0FF3070474FF0000070474FEA4102BD
:104C6000B2F1E04324BFB3F5001CDCF1FE5C0DD9CA
:104C700001F0004C4FEAC0024CEA5070B2F1004F14
:104C800040EB830008BF20F00100704711F0804F17
:104C900021D113F13872BCBF01F00040704741F4DC
:104CA00080114FEA5252C2F11802C2F1200C10FAE0
:104CB0000CF320FA02F018BF40F001004FEAC123C4
:104CC0004FEAD32303FA0CFC40EA0C0023FA02F368
:104CD0004FEA4303CCE77FEA625307D150EA01333E
:104CE0001EBF4FF0FE4040F44000704701F000400E
:104CF00040F0FE4040F40000704700BF80F00040EC
:104D000002E000BF81F0004142001FBF5FEA4103A3
:104D100092EA030F7FEA226C7FEA236C6AD04FEAA3
:104D20001262D2EB1363C1BFD218414048404140E8
:104D3000B8BF5B42192B88BF704710F0004F40F49A
:104D4000000020F07F4018BF404211F0004F41F4B6
:104D5000000121F07F4118BF494292EA030F3FD082
:104D6000A2F1010241FA03FC10EB0C00C3F1200395
:104D700001FA03F100F0004302D5494260EB400024
:104D8000B0F5000F13D3B0F1807F06D340084FEA8F
:104D9000310102F10102FE2A51D2B1F1004F40EB84
:104DA000C25008BF20F0010040EA030070474900EC
:104DB00040EB000010F4000FA2F10102EDD1B0FAB7
:104DC00080FCACF1080CB2EB0C0200FA0CF0AABFAC
:104DD00000EBC25052421843BCBFD040184370474A
:104DE00092F0000F81F4000106BF80F40000013250
:104DF000013BB5E74FEA41037FEA226C18BF7FEA27
:104E0000236C21D092EA030F04D092F0000F08BF68
:104E10000846704790EA010F1CBF0020704712F04F
:104E20007F4F04D1400028BF40F00040704712F18E
:104E300000723CBF00F50000704700F0004343F0F3
:104E4000FE4040F4000070477FEA226216BF084629
:104E50007FEA23630146420206BF5FEA412390EAEC
:104E6000010F40F4800070474FF0000304E000BFE2
:104E700010F0004348BF40425FEA000C08BF704793
:104E800043F0964301464FF000001CE050EA010257
:104E900008BF70474FF000030AE000BF50EA01026C
:104EA00008BF704711F0004302D5404261EB410159
:104EB0005FEA010C02BF84460146002043F0B6437E
:104EC00008BFA3F18053A3F50003BCFA8CF2083AA3
:104ED000A3EBC25310DB01FA02FC634400FA02FCAC
:104EE000C2F12002BCF1004F20FA02F243EB0200B3
:104EF00008BF20F00100704702F1200201FA02FC15
:104F0000C2F1200250EA4C0021FA02F243EB020007
:104F100008BF20EADC7070477BB972B90029BEBFB8
:104F200000204FF0004106E008BF00281CBF6FF0D2
:104F300000414FF0FF3000F00FBAADF1080C6DE901
:104F400004CE002909DB002B1ADB00F097F8DDF80E
:104F500004E0DDE9022304B07047404261EB410107
:104F6000002B1BDB00F08AF8DDF804E0DDE902230A
:104F700004B0404261EB4101524263EB430370478E
:104F8000524263EB430300F079F8DDF804E0DDE919
:104F9000022304B0404261EB41017047524263EB8F
:104FA000430300F06BF8DDF804E0DDE9022304B010
:104FB000524263EB4303704753B94AB9002908BF13
:104FC00000281CBF4FF0FF314FF0FF3000F0C4B994
:104FD000ADF1080C6DE904CE00F050F8DDF804E006
:104FE000DDE9022304B07047430803F05533C01ACB
:104FF000830803F0333300F03330184400EB101013
:1050000000F00F3000EB002000EB0040000E704776
:1050100080EA104080EA102080EA101046F69613CD
:1050200000F00F0043FA00F000F00100704700BFED
:10503000D0B5FFF7C7FA00220E4B06460F46FFF722
:1050400015FBFFF7EBFD0446FFF79AFA00220A4B27
:10505000FFF70CFB02460B4630463946FFF752F984
:10506000FFF7DCFD2346002242EA00021046194603
:10507000D0BD00BF0000F03D0000F0412DE9F04739
:105080008C460D460446089E002B51D18A42174695
:105090006DD9B2FA82FEBEF1000F0BD0CEF1200C1A
:1050A00001FA0EF520FA0CFC02FA0EF74CEA050C98
:1050B00000FA0EF44FEA174A250CBCFBFAF81FFA67
:1050C00087F90AFB18CC45EA0C4508FB09F3AB420B
:1050D0000AD9ED1908F1FF3280F02381AB4240F28A
:1050E0002081A8F102083D44ED1AA4B2B5FBFAF004
:1050F0000AFB105544EA054400FB09F9A14509D90A
:10510000E41900F1FF3380F00A81A14540F20781E4
:1051100002383C44A4EB090440EA08400021002E78
:1051200061D024FA0EF4002334607360BDE8F08788
:105130008B4207D9002E54D0002186E82100084672
:10514000BDE8F087B3FA83F1002940F08E80AB42CE
:1051500002D3824200F2FA80841A65EB0305012033
:10516000AC46002E3FD086E81010BDE8F08712B99B
:105170000127B7FBF2F7B7FA87FEBEF1000F34D173
:10518000EB1B3A0C1FFA87FC0121B3FBF2F8250C4C
:1051900002FB183345EA03450CFB08F3AB4207D981
:1051A000ED1908F1FF3002D2AB4200F2D180804607
:1051B000ED1AA3B2B5FBF2F002FB105543EA054429
:1051C0000CFB00FCA44507D9E41900F1FF3302D21F
:1051D000A44500F2B8801846A4EB0C0440EA08404D
:1051E0009DE731463046BDE8F087CEF1200405FA50
:1051F0000EF307FA0EF720FA04F83A0C25FA04F435
:1052000048EA0308B4FBF2F14FEA184502FB1144E7
:105210001FFA87FC45EA044501FB0CF3AB4200FA98
:105220000EF409D9ED1901F1FF3080F08A80AB420C
:1052300040F2878002393D44EB1A1FFA88F5B3FB30
:10524000F2F002FB103345EA034500FB0CF3AB42DE
:1052500007D9ED1900F1FF386FD2AB426DD9023892
:105260003D44EB1A40EA01418FE7C1F1200722FAE1
:1052700007F88B4005FA01F448EA030320FA07FE19
:105280004FEA134CFD404EEA040EB5FBFCF94FEA21
:105290001E440CFB19551FFA83F844EA054509FB27
:1052A00008F4AC4202FA01F200FA01FA08D9ED184A
:1052B00009F1FF3043D2AC4241D9A9F102091D44A2
:1052C0002D1B1FFA8EFEB5FBFCF00CFB10554EEAB1
:1052D000054400FB08F8A04507D9E41800F1FF35A4
:1052E00029D2A04527D902381C4440EA0940A4EB42
:1052F0000804A0FB02894C45C6464D4615D312D082
:1053000056B1BAEB0E0364EB050404FA07F7CB4081
:105310001F43CC40376074600021BDE8F087184619
:10532000F8E69046E0E6C245EAD2B8EB020E69EB39
:1053300003050138E4E72846D7E7404691E7814670
:10534000BEE7014678E702383C4445E7084608E7EF
:10535000A8F102083D442BE7704700BF02E000F0CF
:1053600000F8FEE772B6394880F30888384880F3C1
:10537000098838484EF60851CEF20001086040F224
:105380000000CCF200004EF63471CEF2000108604D
:10539000BFF34F8FBFF36F8F40F20000C0F2F000F9
:1053A0004EF68851CEF200010860BFF34F8FBFF375
:1053B0006F8F4FF00000E1EE100A4EF63C71CEF216
:1053C00000010860062080F31488BFF36F8FC4F0DB
:1053D000B3FFC4F0A9F94FF055301F491B4A914261
:1053E0003CBF41F8040BFAE71C49194A91423CBF03
:1053F00041F8040BFAE71A491A4A1B4B9A423EBF7E
:1054000051F8040B42F8040BF8E700201749184A3A
:1054100091423CBF41F8040BFAE7C4F091FFC4F09D
:10542000DFF9144C144DAC4203DA54F8041B8847DE
:10543000F9E700F00FFC114C114DAC4203DA54F8BF
:10544000041B8847F9E7C4F079BF0000000400207E
:10545000002400200040000800000020000400207C
:10546000D0670F080024002070280020702800203A
:10547000B4340120E0410008A4420008A44200081E
:10548000A44200082DE9F04F2DED108AC1F80CD090
:10549000C3689D46BDEC108ABDE8F08FC3F09AFD4D
:1054A000002383F311882846A0470020C3F036FF6D
:1054B000C3F08AFDC3F0C0FCC3F08CFD00DFFEE743
:1054C00001F0FF01102A2BDB10F0070F08D010F8B5
:1054D000013B013A8B422DD010F0070F42B3F6D1B9
:1054E000F0B441EA012141EA014122F007047FF0D2
:1054F00000070023F0E80256083C85EA010586EA29
:10550000010685FA47F5A3FA87F586FA47F6A5FA64
:1055100087F68EB9EED1F0BC01F0FF0102F0070270
:1055200032B110F8013B013A83EA010313B1F8D11B
:105530000020704701387047002D06BF35460338FC
:10554000073815F0010F07D1013015F4807F02BF35
:10555000013015F4C03F0130F0BC0138704700BF86
:10556000EC46A0E8F05F4FF000007047B0E8F05F55
:10557000E546080008BF0120704700BF10F8012B66
:1055800011F8013B012A28BF9A42F7D0D01A704780
:10559000034613F8012B002AFBD1181A0138704773
:1055A0001FB5094BD3F8A0280092D3F8A428019284
:1055B000D3F8A8280292D3F8AC3803936A4650F087
:1055C000C3FF05B05DF804FB9828002070B50024E7
:1055D000154E25462146304606F04EFD00214EF080
:1055E00079F802281ED004281CD001340128E4B226
:1055F00008BF0125102CEDD115B90025284670BD36
:10560000094E00242146304606F036FD01214EF0B9
:1056100061F80228F2D00428F0D00134E4B2102C52
:10562000F0D1EAE70125E9E79828002070B5047E6B
:1056300005460E464CB9FFF7C9FF044638B9014686
:10564000064B3246284650F08FF9204670BD314651
:105650002846BDE8704050F019BF00BF20210D085A
:10566000F7B506460F4650F015FD044618B1B3686D
:1056700013F0110F02D1204603B0F0BD0CF042F937
:105680000368D3F8B430984705460028F3D10CF0EE
:1056900039F903685B6A9847064B002808BF18462B
:1056A0000090054B3A461021304650F05DF92C46EB
:1056B000E1E700BF0C210D08A8720D082DE9F041AB
:1056C000334C2378A046002B5AD10126267050F087
:1056D000DDF8054638B92F4A20701378334313702C
:1056E0002846BDE8F0812DF055F931462CF028FC14
:1056F000294805F073FF294B1E710C26013E04D08A
:1057000026F04AF926F0D8F8F8E70CF0FBF8224C1E
:10571000826942F620030746E25090F86031DA07CA
:1057200001D59B072ED597F88C3043F0040387F8FA
:105730008C301B4B1B680121986C1AF087FD1648B2
:1057400007F006FD012117484FF01CFE2DF022F94D
:105750000A212DF097F82DF01DF942F2B543E25CD5
:1057600042F2B443E15C2CF0F9FD0B4805F028FF50
:105770002BF040FE2BF0DCFA002388F80030AFE776
:105780000025ADE73146204602F0FEFACBE700BF28
:1057900070280020E85F002098280020CD5F0020BE
:1057A00090280020F04D0020F0B542F25D53294AC8
:1057B000D35CDB0785B003D40026304605B0F0BDCE
:1057C00050F084F806460028F6D00BF0A3FB0368DF
:1057D000D3F8903005469847D0B111F029FD90F9E3
:1057E0004F30022B14D10024002701AA214628465D
:1057F0000197029703970BF0F3FA28B111F018FD07
:1058000001AA214611F09EFA0134E4B2032CECD136
:105810002DF0C0F80B212DF035F800210E484FF087
:10582000B1FD0E4821F032FC2DF0B4F800212CF02F
:1058300087FB95F88C306FF3820385F88C30084B2A
:105840001B680021986C1AF001FD024806F038FD33
:10585000B3E700BF98280020F04D0020304B002017
:105860009028002008F0B4BA07F01ABF0FF05ABC15
:105870002BF09EBD1BF040BB2CF014BD3AF0BCBD1C
:1058800038F030BF37F0CCBE26F016B80CF0CABEE8
:1058900008F0A2BA07F02ABF10B504462AF0F6F9BC
:1058A000204608F0CFF804F5FA60082315220249D3
:1058B000BDE810402BF046BB84210D0838B500F53B
:1058C000FA65044628462BF083FCD5ED107A9FED4F
:1058D0000D7AF0EEE77AF4EEC77AF1EE10FA0BD516
:1058E000B4F90A3807EE903AF8EEE77AF7EE006A74
:1058F00086EEA77A85ED107A04F536542B6C23607A
:1059000038BD00BF0000003410B5044605F0DEFFCE
:10591000204606F095F8204606F0D0F9204605F01E
:1059200067FF39F0C3FC39F007FCBDE8104039F0DF
:105930001FBD0000FFF7E8BF38B5044600F5205052
:1059400034300DF0C7FE11F073FC90F94D30CBB13F
:1059500004F516500C3031F0DFF8B7EE001A90ED78
:10596000000ADFED090A1DF0E9FC94F9D03D04F6C8
:105970006855012B08BF85ED1B0A2846BDE8384055
:1059800011F026BA38BD00BF00000000FFF7D4BFF9
:1059900037B50221044608F021F8D8B3012120468A
:1059A00008F01CF8B0BB204601F09EFB04F5405304
:1059B0003833009304F6B80504F5395304F515524D
:1059C00004F5365124312846203318322FF086F85A
:1059D0004FF48051204608F001F8D8B104F53D524B
:1059E0002832C62128462FF019F804F53E523C32E1
:1059F000C72128462FF012F804F540521032C82172
:105A000028462FF00BF804F542521832C9212846D7
:105A10002FF004F84FF40031204607F0DFFF10B1FB
:105A2000204601F09BFB4021204607F0D7FF18B12C
:105A300004F6B8002DF0B2FF4FF48061204607F065
:105A4000CDFF18B104F6B8002EF00AF82021204648
:105A500007F0C4FF30B142F2B4432046E15C06F0E7
:105A6000F3F9E8B98021204607F0B8FFF0B94FF408
:105A70008021204607F0B2FFC0B94FF40021204634
:105A800007F0ACFF90B91021204607F0A7FF90B1B6
:105A900004F53950203003B0BDE8304048F060BB19
:105AA00004F5405038304AF049FBDBE704F6B80013
:105AB0002EF07AFAE7E703B030BD0000FFF768BFC9
:105AC00037B50121044607F089FFB0B3204601F045
:105AD0000BFB04F540533833009304F6B80504F586
